{"abi":[{"type":"constructor","inputs":[{"name":"recipient","type":"address","internalType":"address"}],"stateMutability":"nonpayable"},{"type":"function","name":"CLOCK_MODE","inputs":[],"outputs":[{"name":"","type":"string","internalType":"string"}],"stateMutability":"pure"},{"type":"function","name":"DOMAIN_SEPARATOR","inputs":[],"outputs":[{"name":"","type":"bytes32","internalType":"bytes32"}],"stateMutability":"view"},{"type":"function","name":"allowance","inputs":[{"name":"owner","type":"address","internalType":"address"},{"name":"spender","type":"address","internalType":"address"}],"outputs":[{"name":"","type":"uint256","internalType":"uint256"}],"stateMutability":"view"},{"type":"function","name":"approve","inputs":[{"name":"spender","type":"address","internalType":"address"},{"name":"value","type":"uint256","internalType":"uint256"}],"outputs":[{"name":"","type":"bool","internalType":"bool"}],"stateMutability":"nonpayable"},{"type":"function","name":"balanceOf","inputs":[{"name":"account","type":"address","internalType":"address"}],"outputs":[{"name":"","type":"uint256","internalType":"uint256"}],"stateMutability":"view"},{"type":"function","name":"checkpoints","inputs":[{"name":"account","type":"address","internalType":"address"},{"name":"pos","type":"uint32","internalType":"uint32"}],"outputs":[{"name":"","type":"tuple","internalType":"struct Checkpoints.Checkpoint208","components":[{"name":"_key","type":"uint48","internalType":"uint48"},{"name":"_value","type":"uint208","internalType":"uint208"}]}],"stateMutability":"view"},{"type":"function","name":"clock","inputs":[],"outputs":[{"name":"","type":"uint48","internalType":"uint48"}],"stateMutability":"view"},{"type":"function","name":"decimals","inputs":[],"outputs":[{"name":"","type":"uint8","internalType":"uint8"}],"stateMutability":"view"},{"type":"function","name":"delegate","inputs":[{"name":"delegatee","type":"address","internalType":"address"}],"outputs":[],"stateMutability":"nonpayable"},{"type":"function","name":"delegateBySig","inputs":[{"name":"delegatee","type":"address","internalType":"address"},{"name":"nonce","type":"uint256","internalType":"uint256"},{"name":"expiry","type":"uint256","internalType":"uint256"},{"name":"v","type":"uint8","internalType":"uint8"},{"name":"r","type":"bytes32","internalType":"bytes32"},{"name":"s","type":"bytes32","internalType":"bytes32"}],"outputs":[],"stateMutability":"nonpayable"},{"type":"function","name":"delegates","inputs":[{"name":"account","type":"address","internalType":"address"}],"outputs":[{"name":"","type":"address","internalType":"address"}],"stateMutability":"view"},{"type":"function","name":"eip712Domain","inputs":[],"outputs":[{"name":"fields","type":"bytes1","internalType":"bytes1"},{"name":"name","type":"string","internalType":"string"},{"name":"version","type":"string","internalType":"string"},{"name":"chainId","type":"uint256","internalType":"uint256"},{"name":"verifyingContract","type":"address","internalType":"address"},{"name":"salt","type":"bytes32","internalType":"bytes32"},{"name":"extensions","type":"uint256[]","internalType":"uint256[]"}],"stateMutability":"view"},{"type":"function","name":"getPastTotalSupply","inputs":[{"name":"timepoint","type":"uint256","internalType":"uint256"}],"outputs":[{"name":"","type":"uint256","internalType":"uint256"}],"stateMutability":"view"},{"type":"function","name":"getPastVotes","inputs":[{"name":"account","type":"address","internalType":"address"},{"name":"timepoint","type":"uint256","internalType":"uint256"}],"outputs":[{"name":"","type":"uint256","internalType":"uint256"}],"stateMutability":"view"},{"type":"function","name":"getVotes","inputs":[{"name":"account","type":"address","internalType":"address"}],"outputs":[{"name":"","type":"uint256","internalType":"uint256"}],"stateMutability":"view"},{"type":"function","name":"name","inputs":[],"outputs":[{"name":"","type":"string","internalType":"string"}],"stateMutability":"view"},{"type":"function","name":"nonces","inputs":[{"name":"owner","type":"address","internalType":"address"}],"outputs":[{"name":"","type":"uint256","internalType":"uint256"}],"stateMutability":"view"},{"type":"function","name":"numCheckpoints","inputs":[{"name":"account","type":"address","internalType":"address"}],"outputs":[{"name":"","type":"uint32","internalType":"uint32"}],"stateMutability":"view"},{"type":"function","name":"permit","inputs":[{"name":"owner","type":"address","internalType":"address"},{"name":"spender","type":"address","internalType":"address"},{"name":"value","type":"uint256","internalType":"uint256"},{"name":"deadline","type":"uint256","internalType":"uint256"},{"name":"v","type":"uint8","internalType":"uint8"},{"name":"r","type":"bytes32","internalType":"bytes32"},{"name":"s","type":"bytes32","internalType":"bytes32"}],"outputs":[],"stateMutability":"nonpayable"},{"type":"function","name":"symbol","inputs":[],"outputs":[{"name":"","type":"string","internalType":"string"}],"stateMutability":"view"},{"type":"function","name":"totalSupply","inputs":[],"outputs":[{"name":"","type":"uint256","internalType":"uint256"}],"stateMutability":"view"},{"type":"function","name":"transfer","inputs":[{"name":"to","type":"address","internalType":"address"},{"name":"value","type":"uint256","internalType":"uint256"}],"outputs":[{"name":"","type":"bool","internalType":"bool"}],"stateMutability":"nonpayable"},{"type":"function","name":"transferFrom","inputs":[{"name":"from","type":"address","internalType":"address"},{"name":"to","type":"address","internalType":"address"},{"name":"value","type":"uint256","internalType":"uint256"}],"outputs":[{"name":"","type":"bool","internalType":"bool"}],"stateMutability":"nonpayable"},{"type":"event","name":"Approval","inputs":[{"name":"owner","type":"address","indexed":true,"internalType":"address"},{"name":"spender","type":"address","indexed":true,"internalType":"address"},{"name":"value","type":"uint256","indexed":false,"internalType":"uint256"}],"anonymous":false},{"type":"event","name":"DelegateChanged","inputs":[{"name":"delegator","type":"address","indexed":true,"internalType":"address"},{"name":"fromDelegate","type":"address","indexed":true,"internalType":"address"},{"name":"toDelegate","type":"address","indexed":true,"internalType":"address"}],"anonymous":false},{"type":"event","name":"DelegateVotesChanged","inputs":[{"name":"delegate","type":"address","indexed":true,"internalType":"address"},{"name":"previousVotes","type":"uint256","indexed":false,"internalType":"uint256"},{"name":"newVotes","type":"uint256","indexed":false,"internalType":"uint256"}],"anonymous":false},{"type":"event","name":"EIP712DomainChanged","inputs":[],"anonymous":false},{"type":"event","name":"Transfer","inputs":[{"name":"from","type":"address","indexed":true,"internalType":"address"},{"name":"to","type":"address","indexed":true,"internalType":"address"},{"name":"value","type":"uint256","indexed":false,"internalType":"uint256"}],"anonymous":false},{"type":"error","name":"CheckpointUnorderedInsertion","inputs":[]},{"type":"error","name":"ECDSAInvalidSignature","inputs":[]},{"type":"error","name":"ECDSAInvalidSignatureLength","inputs":[{"name":"length","type":"uint256","internalType":"uint256"}]},{"type":"error","name":"ECDSAInvalidSignatureS","inputs":[{"name":"s","type":"bytes32","internalType":"bytes32"}]},{"type":"error","name":"ERC20ExceededSafeSupply","inputs":[{"name":"increasedSupply","type":"uint256","internalType":"uint256"},{"name":"cap","type":"uint256","internalType":"uint256"}]},{"type":"error","name":"ERC20InsufficientAllowance","inputs":[{"name":"spender","type":"address","internalType":"address"},{"name":"allowance","type":"uint256","internalType":"uint256"},{"name":"needed","type":"uint256","internalType":"uint256"}]},{"type":"error","name":"ERC20InsufficientBalance","inputs":[{"name":"sender","type":"address","internalType":"address"},{"name":"balance","type":"uint256","internalType":"uint256"},{"name":"needed","type":"uint256","internalType":"uint256"}]},{"type":"error","name":"ERC20InvalidApprover","inputs":[{"name":"approver","type":"address","internalType":"address"}]},{"type":"error","name":"ERC20InvalidReceiver","inputs":[{"name":"receiver","type":"address","internalType":"address"}]},{"type":"error","name":"ERC20InvalidSender","inputs":[{"name":"sender","type":"address","internalType":"address"}]},{"type":"error","name":"ERC20InvalidSpender","inputs":[{"name":"spender","type":"address","internalType":"address"}]},{"type":"error","name":"ERC2612ExpiredSignature","inputs":[{"name":"deadline","type":"uint256","internalType":"uint256"}]},{"type":"error","name":"ERC2612InvalidSigner","inputs":[{"name":"signer","type":"address","internalType":"address"},{"name":"owner","type":"address","internalType":"address"}]},{"type":"error","name":"ERC5805FutureLookup","inputs":[{"name":"timepoint","type":"uint256","internalType":"uint256"},{"name":"clock","type":"uint48","internalType":"uint48"}]},{"type":"error","name":"ERC6372InconsistentClock","inputs":[]},{"type":"error","name":"InvalidAccountNonce","inputs":[{"name":"account","type":"address","internalType":"address"},{"name":"currentNonce","type":"uint256","internalType":"uint256"}]},{"type":"error","name":"InvalidShortString","inputs":[]},{"type":"error","name":"SafeCastOverflowedUintDowncast","inputs":[{"name":"bits","type":"uint8","internalType":"uint8"},{"name":"value","type":"uint256","internalType":"uint256"}]},{"type":"error","name":"StringTooLong","inputs":[{"name":"str","type":"string","internalType":"string"}]},{"type":"error","name":"VotesExpiredSignature","inputs":[{"name":"expiry","type":"uint256","internalType":"uint256"}]}],"bytecode":{"object":"0x610160604052348015610010575f5ffd5b506040516127ff3803806127ff83398101604081905261002f916107f5565b6040518060400160405280600b81526020016a2b37ba34b733aa37b5b2b760a91b81525080604051806040016040528060018152602001603160f81b8152506040518060400160405280600b81526020016a2b37ba34b733aa37b5b2b760a91b81525060405180604001604052806004815260200163564f544560e01b81525081600390816100be91906108b2565b5060046100cb82826108b2565b506100db915083905060056101a8565b610120526100ea8160066101a8565b61014052815160208084019190912060e052815190820120610100524660a05261017660e05161010051604080517f8b73c3c69bb8fe3d512ecc4cf759cc79239f7b179b0ffacaa9a75d522b39400f60208201529081019290925260608201524660808201523060a08201525f9060c00160405160208183030381529060405280519060200120905090565b60805250503060c052506101a2816101906012600a610a5b565b61019d90620f4240610a69565b6101da565b50610b3c565b5f6020835110156101c3576101bc83610217565b90506101d4565b816101ce84826108b2565b5060ff90505b92915050565b6001600160a01b0382166102085760405163ec442f0560e01b81525f60048201526024015b60405180910390fd5b6102135f8383610254565b5050565b5f5f829050601f81511115610241578260405163305a27a960e01b81526004016101ff9190610a80565b805161024c82610ab5565b179392505050565b61025f838383610264565b505050565b61026f8383836102ca565b6001600160a01b0383166102bf575f61028760025490565b90506001600160d01b03808211156102bc57604051630e58ae9360e11b815260048101839052602481018290526044016101ff565b50505b61025f8383836103f0565b6001600160a01b0383166102f4578060025f8282546102e99190610ad8565b909155506103649050565b6001600160a01b0383165f90815260208190526040902054818110156103465760405163391434e360e21b81526001600160a01b038516600482015260248101829052604481018390526064016101ff565b6001600160a01b0384165f9081526020819052604090209082900390555b6001600160a01b0382166103805760028054829003905561039e565b6001600160a01b0382165f9081526020819052604090208054820190555b816001600160a01b0316836001600160a01b03167fddf252ad1be2c89b69c2b068fc378daa952ba7f163c4a11628f55a4df523b3ef836040516103e391815260200190565b60405180910390a3505050565b6001600160a01b03831661041e5761041b600a6107c461047860201b176104168461048a565b6104c1565b50505b6001600160a01b03821661044757610444600a6107cf6104ef60201b176104168461048a565b50505b6001600160a01b038381165f9081526008602052604080822054858416835291205461025f929182169116836104fa565b5f6104838284610aeb565b9392505050565b5f6001600160d01b038211156104bd576040516306dfcc6560e41b815260d06004820152602481018390526044016101ff565b5090565b5f806104e2426104da6104d38861064a565b868860201c565b879190610691565b915091505b935093915050565b5f6104838284610b0a565b816001600160a01b0316836001600160a01b03161415801561051b57505f81115b1561025f576001600160a01b038316156105b3576001600160a01b0383165f9081526009602090815260408220829161056191906104ef901b6107cf176104168661048a565b6001600160d01b031691506001600160d01b03169150846001600160a01b03165f5160206127df5f395f51905f5283836040516105a8929190918252602082015260400190565b60405180910390a250505b6001600160a01b0382161561025f576001600160a01b0382165f908152600960209081526040822082916105f49190610478901b6107c4176104168661048a565b6001600160d01b031691506001600160d01b03169150836001600160a01b03165f5160206127df5f395f51905f52838360405161063b929190918252602082015260400190565b60405180910390a25050505050565b80545f9080156106895761067083610663600184610b29565b5f91825260209091200190565b54660100000000000090046001600160d01b0316610483565b5f9392505050565b5f806104e285858582545f9081908015610798575f6106b587610663600185610b29565b805490915065ffffffffffff80821691660100000000000090046001600160d01b03169088168211156106fb57604051632520601d60e01b815260040160405180910390fd5b8765ffffffffffff168265ffffffffffff160361073757825465ffffffffffff1666010000000000006001600160d01b0389160217835561078a565b6040805180820190915265ffffffffffff808a1682526001600160d01b03808a1660208085019182528d54600181018f555f8f815291909120945191519092166601000000000000029216919091179101555b94508593506104e792505050565b50506040805180820190915265ffffffffffff80851682526001600160d01b0380851660208085019182528854600181018a555f8a81529182209551925190931666010000000000000291909316179201919091559050816104e7565b5f60208284031215610805575f5ffd5b81516001600160a01b0381168114610483575f5ffd5b634e487b7160e01b5f52604160045260245ffd5b600181811c9082168061084357607f821691505b60208210810361086157634e487b7160e01b5f52602260045260245ffd5b50919050565b601f82111561025f57805f5260205f20601f840160051c8101602085101561088c5750805b601f840160051c820191505b818110156108ab575f8155600101610898565b5050505050565b81516001600160401b038111156108cb576108cb61081b565b6108df816108d9845461082f565b84610867565b6020601f821160018114610911575f83156108fa5750848201515b5f19600385901b1c1916600184901b1784556108ab565b5f84815260208120601f198516915b828110156109405787850151825560209485019460019092019101610920565b508482101561095d57868401515f19600387901b60f8161c191681555b50505050600190811b01905550565b634e487b7160e01b5f52601160045260245ffd5b6001815b60018411156104e75780850481111561099f5761099f61096c565b60018416156109ad57908102905b60019390931c928002610984565b5f826109c9575060016101d4565b816109d557505f6101d4565b81600181146109eb57600281146109f557610a11565b60019150506101d4565b60ff841115610a0657610a0661096c565b50506001821b6101d4565b5060208310610133831016604e8410600b8410161715610a34575081810a6101d4565b610a405f198484610980565b805f1904821115610a5357610a5361096c565b029392505050565b5f61048360ff8416836109bb565b80820281158282048414176101d4576101d461096c565b602081525f82518060208401528060208501604085015e5f604082850101526040601f19601f83011684010191505092915050565b80516020808301519190811015610861575f1960209190910360031b1b16919050565b808201808211156101d4576101d461096c565b6001600160d01b0381811683821601908111156101d4576101d461096c565b6001600160d01b0382811682821603908111156101d4576101d461096c565b818103818111156101d4576101d461096c565b60805160a05160c05160e051610100516101205161014051611c52610b8d5f395f610bc501525f610b9801525f61099e01525f61097601525f6108d101525f6108fb01525f6109250152611c525ff3fe608060405234801561000f575f5ffd5b5060043610610148575f3560e01c806370a08231116100bf5780639ab24eb0116100795780639ab24eb01461030d578063a9059cbb14610320578063c3cda52014610333578063d505accf14610346578063dd62ed3e14610359578063f1127ed814610391575f5ffd5b806370a08231146102865780637ecebe00146102ae57806384b0196e146102c15780638e539e8c146102dc57806391ddadf4146102ef57806395d89b4114610305575f5ffd5b80633644e515116101105780633644e515146101c15780633a46b1a8146101c95780634bf5d7e9146101dc578063587cde1e146102065780635c19a95c146102495780636fcfff451461025e575f5ffd5b806306fdde031461014c578063095ea7b31461016a57806318160ddd1461018d57806323b872dd1461019f578063313ce567146101b2575b5f5ffd5b6101546103d0565b6040516101619190611884565b60405180910390f35b61017d6101783660046118b1565b610460565b6040519015158152602001610161565b6002545b604051908152602001610161565b61017d6101ad3660046118d9565b610479565b60405160128152602001610161565b61019161049c565b6101916101d73660046118b1565b6104aa565b60408051808201909152600e81526d06d6f64653d74696d657374616d760941b6020820152610154565b610231610214366004611913565b6001600160a01b039081165f908152600860205260409020541690565b6040516001600160a01b039091168152602001610161565b61025c610257366004611913565b6104e4565b005b61027161026c366004611913565b6104f3565b60405163ffffffff9091168152602001610161565b610191610294366004611913565b6001600160a01b03165f9081526020819052604090205490565b6101916102bc366004611913565b6104fd565b6102c9610507565b604051610161979695949392919061192c565b6101916102ea3660046119c2565b610549565b60405165ffffffffffff42168152602001610161565b61015461056d565b61019161031b366004611913565b61057c565b61017d61032e3660046118b1565b61059c565b61025c6103413660046119e9565b6105a9565b61025c610354366004611a3d565b61066a565b610191610367366004611aa3565b6001600160a01b039182165f90815260016020908152604080832093909416825291909152205490565b6103a461039f366004611ad4565b6107a0565b60408051825165ffffffffffff1681526020928301516001600160d01b03169281019290925201610161565b6060600380546103df90611b11565b80601f016020809104026020016040519081016040528092919081815260200182805461040b90611b11565b80156104565780601f1061042d57610100808354040283529160200191610456565b820191905f5260205f20905b81548152906001019060200180831161043957829003601f168201915b5050505050905090565b5f3361046d8185856107da565b60019150505b92915050565b5f336104868582856107ec565b610491858585610868565b506001949350505050565b5f6104a56108c5565b905090565b5f6104d46104b7836109ee565b6001600160a01b0385165f90815260096020526040902090610a32565b6001600160d01b03169392505050565b336104ef8183610ae2565b5050565b5f61047382610b53565b5f61047382610b74565b5f6060805f5f5f6060610518610b91565b610520610bbe565b604080515f80825260208201909252600f60f81b9b939a50919850469750309650945092509050565b5f61055e610556836109ee565b600a90610a32565b6001600160d01b031692915050565b6060600480546103df90611b11565b6001600160a01b0381165f90815260096020526040812061055e90610beb565b5f3361046d818585610868565b834211156105d257604051632341d78760e11b8152600481018590526024015b60405180910390fd5b604080517fe48329057bfd03d55e49b547132e39cffd9c1820ad7b9d4c5307691425d15adf60208201526001600160a01b0388169181019190915260608101869052608081018590525f9061064b906106439060a00160405160208183030381529060405280519060200120610c22565b858585610c4e565b90506106578187610c7a565b6106618188610ae2565b50505050505050565b8342111561068e5760405163313c898160e11b8152600481018590526024016105c9565b5f7f6e71edae12b1b97f4d1f60370fef10105fa2faae0126114a169c64845d6126c98888886106d98c6001600160a01b03165f90815260076020526040902080546001810190915590565b6040805160208101969096526001600160a01b0394851690860152929091166060840152608083015260a082015260c0810186905260e0016040516020818303038152906040528051906020012090505f61073382610c22565b90505f61074282878787610c4e565b9050896001600160a01b0316816001600160a01b031614610789576040516325c0072360e11b81526001600160a01b0380831660048301528b1660248201526044016105c9565b6107948a8a8a6107da565b50505050505050505050565b604080518082019091525f80825260208201526107bd8383610ccc565b9392505050565b5f6107bd8284611b5d565b5f6107bd8284611b7c565b6107e78383836001610d00565b505050565b6001600160a01b038381165f908152600160209081526040808320938616835292905220545f19811015610862578181101561085457604051637dc7a0d960e11b81526001600160a01b038416600482015260248101829052604481018390526064016105c9565b61086284848484035f610d00565b50505050565b6001600160a01b03831661089157604051634b637e8f60e11b81525f60048201526024016105c9565b6001600160a01b0382166108ba5760405163ec442f0560e01b81525f60048201526024016105c9565b6107e7838383610dd2565b5f306001600160a01b037f00000000000000000000000000000000000000000000000000000000000000001614801561091d57507f000000000000000000000000000000000000000000000000000000000000000046145b1561094757507f000000000000000000000000000000000000000000000000000000000000000090565b6104a5604080517f8b73c3c69bb8fe3d512ecc4cf759cc79239f7b179b0ffacaa9a75d522b39400f60208201527f0000000000000000000000000000000000000000000000000000000000000000918101919091527f000000000000000000000000000000000000000000000000000000000000000060608201524660808201523060a08201525f9060c00160405160208183030381529060405280519060200120905090565b5f4265ffffffffffff81168310610a2957604051637669fc0f60e11b81526004810184905265ffffffffffff821660248201526044016105c9565b6107bd83610ddd565b81545f9081816005811115610a8e575f610a4b84610e13565b610a559085611b9b565b5f8881526020902090915081015465ffffffffffff9081169087161015610a7e57809150610a8c565b610a89816001611bae565b92505b505b5f610a9b87878585610f6b565b90508015610ad557610abf87610ab2600184611b9b565b5f91825260209091200190565b54600160301b90046001600160d01b0316610ad7565b5f5b979650505050505050565b6001600160a01b038281165f8181526008602052604080822080548686166001600160a01b0319821681179092559151919094169392849290917f3134e8a2e6d97e929a7e54011ea5485d7d196dd5f0ba4d4ef95803e8e3fc257f9190a46107e78183610b4e86610fca565b610fe7565b6001600160a01b0381165f9081526009602052604081205461047390611150565b6001600160a01b0381165f90815260076020526040812054610473565b60606104a57f00000000000000000000000000000000000000000000000000000000000000006005611180565b60606104a57f00000000000000000000000000000000000000000000000000000000000000006006611180565b80545f908015610c1a57610c0483610ab2600184611b9b565b54600160301b90046001600160d01b03166107bd565b5f9392505050565b5f610473610c2e6108c5565b8360405161190160f01b8152600281019290925260228201526042902090565b5f5f5f5f610c5e88888888611229565b925092509250610c6e82826112f1565b50909695505050505050565b6001600160a01b0382165f9081526007602052604090208054600181019091558181146107e7576040516301d4b62360e61b81526001600160a01b0384166004820152602481018290526044016105c9565b604080518082019091525f80825260208201526001600160a01b0383165f9081526009602052604090206107bd90836113a9565b6001600160a01b038416610d295760405163e602df0560e01b81525f60048201526024016105c9565b6001600160a01b038316610d5257604051634a1406b160e11b81525f60048201526024016105c9565b6001600160a01b038085165f908152600160209081526040808320938716835292905220829055801561086257826001600160a01b0316846001600160a01b03167f8c5be1e5ebec7d5bd14f71427d1e84f3dd0314c0f7b2291e5b200ac8c7c3b92584604051610dc491815260200190565b60405180910390a350505050565b6107e7838383611416565b5f65ffffffffffff821115610e0f576040516306dfcc6560e41b815260306004820152602481018390526044016105c9565b5090565b5f60018211610e20575090565b816001600160801b8210610e395760809190911c9060401b5b680100000000000000008210610e545760409190911c9060201b5b6401000000008210610e6b5760209190911c9060101b5b620100008210610e805760109190911c9060081b5b6101008210610e945760089190911c9060041b5b60108210610ea75760049190911c9060021b5b60048210610eb35760011b5b600302600190811c90818581610ecb57610ecb611bc1565b048201901c90506001818581610ee357610ee3611bc1565b048201901c90506001818581610efb57610efb611bc1565b048201901c90506001818581610f1357610f13611bc1565b048201901c90506001818581610f2b57610f2b611bc1565b048201901c90506001818581610f4357610f43611bc1565b048201901c9050610f62818581610f5c57610f5c611bc1565b04821190565b90039392505050565b5f5b81831015610fc2575f610f80848461147c565b5f8781526020902090915065ffffffffffff86169082015465ffffffffffff161115610fae57809250610fbc565b610fb9816001611bae565b93505b50610f6d565b509392505050565b6001600160a01b0381165f90815260208190526040812054610473565b816001600160a01b0316836001600160a01b03161415801561100857505f81115b156107e7576001600160a01b038316156110af576001600160a01b0383165f908152600960205260408120819061104a906107cf61104586611496565b6114c9565b6001600160d01b031691506001600160d01b03169150846001600160a01b03167fdec2bacdd2f05b59de34da9b523dff8be42e5e38e818c82fdb0bae774387a72483836040516110a4929190918252602082015260400190565b60405180910390a250505b6001600160a01b038216156107e7576001600160a01b0382165f90815260096020526040812081906110e7906107c461104586611496565b6001600160d01b031691506001600160d01b03169150836001600160a01b03167fdec2bacdd2f05b59de34da9b523dff8be42e5e38e818c82fdb0bae774387a7248383604051611141929190918252602082015260400190565b60405180910390a25050505050565b5f63ffffffff821115610e0f576040516306dfcc6560e41b815260206004820152602481018390526044016105c9565b606060ff831461119a57611193836114fa565b9050610473565b8180546111a690611b11565b80601f01602080910402602001604051908101604052809291908181526020018280546111d290611b11565b801561121d5780601f106111f45761010080835404028352916020019161121d565b820191905f5260205f20905b81548152906001019060200180831161120057829003601f168201915b50505050509050610473565b5f80807f7fffffffffffffffffffffffffffffff5d576e7357a4501ddfe92f46681b20a084111561126257505f915060039050826112e7565b604080515f808252602082018084528a905260ff891692820192909252606081018790526080810186905260019060a0016020604051602081039080840390855afa1580156112b3573d5f5f3e3d5ffd5b5050604051601f1901519150506001600160a01b0381166112de57505f9250600191508290506112e7565b92505f91508190505b9450945094915050565b5f82600381111561130457611304611bd5565b0361130d575050565b600182600381111561132157611321611bd5565b0361133f5760405163f645eedf60e01b815260040160405180910390fd5b600282600381111561135357611353611bd5565b036113745760405163fce698f760e01b8152600481018290526024016105c9565b600382600381111561138857611388611bd5565b036104ef576040516335e2f38360e21b8152600481018290526024016105c9565b604080518082019091525f8082526020820152825f018263ffffffff16815481106113d6576113d6611be9565b5f9182526020918290206040805180820190915291015465ffffffffffff81168252600160301b90046001600160d01b0316918101919091529392505050565b611421838383611537565b6001600160a01b038316611471575f61143960025490565b90506001600160d01b038082111561146e57604051630e58ae9360e11b815260048101839052602481018290526044016105c9565b50505b6107e783838361165d565b5f61148a6002848418611bfd565b6107bd90848416611bae565b5f6001600160d01b03821115610e0f576040516306dfcc6560e41b815260d06004820152602481018390526044016105c9565b5f806114ed426114e56114db88610beb565b868863ffffffff16565b8791906116d2565b915091505b935093915050565b60605f611506836116df565b6040805160208082528183019092529192505f91906020820181803683375050509182525060208101929092525090565b6001600160a01b038316611561578060025f8282546115569190611bae565b909155506115d19050565b6001600160a01b0383165f90815260208190526040902054818110156115b35760405163391434e360e21b81526001600160a01b038516600482015260248101829052604481018390526064016105c9565b6001600160a01b0384165f9081526020819052604090209082900390555b6001600160a01b0382166115ed5760028054829003905561160b565b6001600160a01b0382165f9081526020819052604090208054820190555b816001600160a01b0316836001600160a01b03167fddf252ad1be2c89b69c2b068fc378daa952ba7f163c4a11628f55a4df523b3ef8360405161165091815260200190565b60405180910390a3505050565b6001600160a01b03831661167f5761167c600a6107c461104584611496565b50505b6001600160a01b0382166116a15761169e600a6107cf61104584611496565b50505b6001600160a01b038381165f908152600860205260408082205485841683529120546107e792918216911683610fe7565b5f806114ed858585611706565b5f60ff8216601f81111561047357604051632cd44ac360e21b815260040160405180910390fd5b82545f90819080156117fc575f61172287610ab2600185611b9b565b805490915065ffffffffffff80821691600160301b90046001600160d01b031690881682111561176557604051632520601d60e01b815260040160405180910390fd5b8765ffffffffffff168265ffffffffffff160361179e57825465ffffffffffff16600160301b6001600160d01b038916021783556117ee565b6040805180820190915265ffffffffffff808a1682526001600160d01b03808a1660208085019182528d54600181018f555f8f81529190912094519151909216600160301b029216919091179101555b94508593506114f292505050565b50506040805180820190915265ffffffffffff80851682526001600160d01b0380851660208085019182528854600181018a555f8a815291822095519251909316600160301b0291909316179201919091559050816114f2565b5f81518084528060208401602086015e5f602082860101526020601f19601f83011685010191505092915050565b602081525f6107bd6020830184611856565b80356001600160a01b03811681146118ac575f5ffd5b919050565b5f5f604083850312156118c2575f5ffd5b6118cb83611896565b946020939093013593505050565b5f5f5f606084860312156118eb575f5ffd5b6118f484611896565b925061190260208501611896565b929592945050506040919091013590565b5f60208284031215611923575f5ffd5b6107bd82611896565b60ff60f81b8816815260e060208201525f61194a60e0830189611856565b828103604084015261195c8189611856565b606084018890526001600160a01b038716608085015260a0840186905283810360c0850152845180825260208087019350909101905f5b818110156119b1578351835260209384019390920191600101611993565b50909b9a5050505050505050505050565b5f602082840312156119d2575f5ffd5b5035919050565b803560ff811681146118ac575f5ffd5b5f5f5f5f5f5f60c087890312156119fe575f5ffd5b611a0787611896565b95506020870135945060408701359350611a23606088016119d9565b9598949750929560808101359460a0909101359350915050565b5f5f5f5f5f5f5f60e0888a031215611a53575f5ffd5b611a5c88611896565b9650611a6a60208901611896565b95506040880135945060608801359350611a86608089016119d9565b9699959850939692959460a0840135945060c09093013592915050565b5f5f60408385031215611ab4575f5ffd5b611abd83611896565b9150611acb60208401611896565b90509250929050565b5f5f60408385031215611ae5575f5ffd5b611aee83611896565b9150602083013563ffffffff81168114611b06575f5ffd5b809150509250929050565b600181811c90821680611b2557607f821691505b602082108103611b4357634e487b7160e01b5f52602260045260245ffd5b50919050565b634e487b7160e01b5f52601160045260245ffd5b6001600160d01b03818116838216019081111561047357610473611b49565b6001600160d01b03828116828216039081111561047357610473611b49565b8181038181111561047357610473611b49565b8082018082111561047357610473611b49565b634e487b7160e01b5f52601260045260245ffd5b634e487b7160e01b5f52602160045260245ffd5b634e487b7160e01b5f52603260045260245ffd5b5f82611c1757634e487b7160e01b5f52601260045260245ffd5b50049056fea26469706673582212202a54a4be7a42b5d28f3ce28de6b9f2820c15455838de98a09b5d3c10d636635564736f6c634300081c0033dec2bacdd2f05b59de34da9b523dff8be42e5e38e818c82fdb0bae774387a724","linkReferences":{}},"methodIdentifiers":{"CLOCK_MODE()":"4bf5d7e9","DOMAIN_SEPARATOR()":"3644e515","allowance(address,address)":"dd62ed3e","approve(address,uint256)":"095ea7b3","balanceOf(address)":"70a08231","checkpoints(address,uint32)":"f1127ed8","clock()":"91ddadf4","decimals()":"313ce567","delegate(address)":"5c19a95c","delegateBySig(address,uint256,uint256,uint8,bytes32,bytes32)":"c3cda520","delegates(address)":"587cde1e","eip712Domain()":"84b0196e","getPastTotalSupply(uint256)":"8e539e8c","getPastVotes(address,uint256)":"3a46b1a8","getVotes(address)":"9ab24eb0","name()":"06fdde03","nonces(address)":"7ecebe00","numCheckpoints(address)":"6fcfff45","permit(address,address,uint256,uint256,uint8,bytes32,bytes32)":"d505accf","symbol()":"95d89b41","totalSupply()":"18160ddd","transfer(address,uint256)":"a9059cbb","transferFrom(address,address,uint256)":"23b872dd"},"id":65}