{"abi":[{"type":"constructor","inputs":[{"name":"_token","type":"address","internalType":"contract IVotes"},{"name":"_timelock","type":"address","internalType":"contract TimelockController"}],"stateMutability":"nonpayable"},{"type":"receive","stateMutability":"payable"},{"type":"function","name":"BALLOT_TYPEHASH","inputs":[],"outputs":[{"name":"","type":"bytes32","internalType":"bytes32"}],"stateMutability":"view"},{"type":"function","name":"CLOCK_MODE","inputs":[],"outputs":[{"name":"","type":"string","internalType":"string"}],"stateMutability":"view"},{"type":"function","name":"COUNTING_MODE","inputs":[],"outputs":[{"name":"","type":"string","internalType":"string"}],"stateMutability":"pure"},{"type":"function","name":"EXTENDED_BALLOT_TYPEHASH","inputs":[],"outputs":[{"name":"","type":"bytes32","internalType":"bytes32"}],"stateMutability":"view"},{"type":"function","name":"activeProposals","inputs":[{"name":"","type":"uint256","internalType":"uint256"}],"outputs":[{"name":"","type":"uint256","internalType":"uint256"}],"stateMutability":"view"},{"type":"function","name":"activeProposalsLength","inputs":[],"outputs":[{"name":"","type":"uint256","internalType":"uint256"}],"stateMutability":"view"},{"type":"function","name":"cancel","inputs":[{"name":"proposalId","type":"uint256","internalType":"uint256"}],"outputs":[],"stateMutability":"nonpayable"},{"type":"function","name":"cancel","inputs":[{"name":"targets","type":"address[]","internalType":"address[]"},{"name":"values","type":"uint256[]","internalType":"uint256[]"},{"name":"calldatas","type":"bytes[]","internalType":"bytes[]"},{"name":"descriptionHash","type":"bytes32","internalType":"bytes32"}],"outputs":[{"name":"","type":"uint256","internalType":"uint256"}],"stateMutability":"nonpayable"},{"type":"function","name":"castVote","inputs":[{"name":"proposalId","type":"uint256","internalType":"uint256"},{"name":"support","type":"uint8","internalType":"uint8"}],"outputs":[{"name":"","type":"uint256","internalType":"uint256"}],"stateMutability":"nonpayable"},{"type":"function","name":"castVoteBySig","inputs":[{"name":"proposalId","type":"uint256","internalType":"uint256"},{"name":"support","type":"uint8","internalType":"uint8"},{"name":"voter","type":"address","internalType":"address"},{"name":"signature","type":"bytes","internalType":"bytes"}],"outputs":[{"name":"","type":"uint256","internalType":"uint256"}],"stateMutability":"nonpayable"},{"type":"function","name":"castVoteWithReason","inputs":[{"name":"proposalId","type":"uint256","internalType":"uint256"},{"name":"support","type":"uint8","internalType":"uint8"},{"name":"reason","type":"string","internalType":"string"}],"outputs":[{"name":"","type":"uint256","internalType":"uint256"}],"stateMutability":"nonpayable"},{"type":"function","name":"castVoteWithReasonAndParams","inputs":[{"name":"proposalId","type":"uint256","internalType":"uint256"},{"name":"support","type":"uint8","internalType":"uint8"},{"name":"reason","type":"string","internalType":"string"},{"name":"params","type":"bytes","internalType":"bytes"}],"outputs":[{"name":"","type":"uint256","internalType":"uint256"}],"stateMutability":"nonpayable"},{"type":"function","name":"castVoteWithReasonAndParamsBySig","inputs":[{"name":"proposalId","type":"uint256","internalType":"uint256"},{"name":"support","type":"uint8","internalType":"uint8"},{"name":"voter","type":"address","internalType":"address"},{"name":"reason","type":"string","internalType":"string"},{"name":"params","type":"bytes","internalType":"bytes"},{"name":"signature","type":"bytes","internalType":"bytes"}],"outputs":[{"name":"","type":"uint256","internalType":"uint256"}],"stateMutability":"nonpayable"},{"type":"function","name":"clock","inputs":[],"outputs":[{"name":"","type":"uint48","internalType":"uint48"}],"stateMutability":"view"},{"type":"function","name":"eip712Domain","inputs":[],"outputs":[{"name":"fields","type":"bytes1","internalType":"bytes1"},{"name":"name","type":"string","internalType":"string"},{"name":"version","type":"string","internalType":"string"},{"name":"chainId","type":"uint256","internalType":"uint256"},{"name":"verifyingContract","type":"address","internalType":"address"},{"name":"salt","type":"bytes32","internalType":"bytes32"},{"name":"extensions","type":"uint256[]","internalType":"uint256[]"}],"stateMutability":"view"},{"type":"function","name":"execute","inputs":[{"name":"targets","type":"address[]","internalType":"address[]"},{"name":"values","type":"uint256[]","internalType":"uint256[]"},{"name":"calldatas","type":"bytes[]","internalType":"bytes[]"},{"name":"descriptionHash","type":"bytes32","internalType":"bytes32"}],"outputs":[{"name":"","type":"uint256","internalType":"uint256"}],"stateMutability":"payable"},{"type":"function","name":"execute","inputs":[{"name":"proposalId","type":"uint256","internalType":"uint256"}],"outputs":[],"stateMutability":"payable"},{"type":"function","name":"getActiveProposals","inputs":[],"outputs":[{"name":"","type":"uint256[]","internalType":"uint256[]"}],"stateMutability":"view"},{"type":"function","name":"getVotes","inputs":[{"name":"account","type":"address","internalType":"address"},{"name":"timepoint","type":"uint256","internalType":"uint256"}],"outputs":[{"name":"","type":"uint256","internalType":"uint256"}],"stateMutability":"view"},{"type":"function","name":"getVotesWithParams","inputs":[{"name":"account","type":"address","internalType":"address"},{"name":"timepoint","type":"uint256","internalType":"uint256"},{"name":"params","type":"bytes","internalType":"bytes"}],"outputs":[{"name":"","type":"uint256","internalType":"uint256"}],"stateMutability":"view"},{"type":"function","name":"hasVoted","inputs":[{"name":"proposalId","type":"uint256","internalType":"uint256"},{"name":"account","type":"address","internalType":"address"}],"outputs":[{"name":"","type":"bool","internalType":"bool"}],"stateMutability":"view"},{"type":"function","name":"hashProposal","inputs":[{"name":"targets","type":"address[]","internalType":"address[]"},{"name":"values","type":"uint256[]","internalType":"uint256[]"},{"name":"calldatas","type":"bytes[]","internalType":"bytes[]"},{"name":"descriptionHash","type":"bytes32","internalType":"bytes32"}],"outputs":[{"name":"","type":"uint256","internalType":"uint256"}],"stateMutability":"pure"},{"type":"function","name":"isProposalActive","inputs":[{"name":"proposalId","type":"uint256","internalType":"uint256"}],"outputs":[{"name":"","type":"bool","internalType":"bool"}],"stateMutability":"view"},{"type":"function","name":"name","inputs":[],"outputs":[{"name":"","type":"string","internalType":"string"}],"stateMutability":"view"},{"type":"function","name":"nonces","inputs":[{"name":"owner","type":"address","internalType":"address"}],"outputs":[{"name":"","type":"uint256","internalType":"uint256"}],"stateMutability":"view"},{"type":"function","name":"onERC1155BatchReceived","inputs":[{"name":"","type":"address","internalType":"address"},{"name":"","type":"address","internalType":"address"},{"name":"","type":"uint256[]","internalType":"uint256[]"},{"name":"","type":"uint256[]","internalType":"uint256[]"},{"name":"","type":"bytes","internalType":"bytes"}],"outputs":[{"name":"","type":"bytes4","internalType":"bytes4"}],"stateMutability":"nonpayable"},{"type":"function","name":"onERC1155Received","inputs":[{"name":"","type":"address","internalType":"address"},{"name":"","type":"address","internalType":"address"},{"name":"","type":"uint256","internalType":"uint256"},{"name":"","type":"uint256","internalType":"uint256"},{"name":"","type":"bytes","internalType":"bytes"}],"outputs":[{"name":"","type":"bytes4","internalType":"bytes4"}],"stateMutability":"nonpayable"},{"type":"function","name":"onERC721Received","inputs":[{"name":"","type":"address","internalType":"address"},{"name":"","type":"address","internalType":"address"},{"name":"","type":"uint256","internalType":"uint256"},{"name":"","type":"bytes","internalType":"bytes"}],"outputs":[{"name":"","type":"bytes4","internalType":"bytes4"}],"stateMutability":"nonpayable"},{"type":"function","name":"proposalCount","inputs":[],"outputs":[{"name":"","type":"uint256","internalType":"uint256"}],"stateMutability":"view"},{"type":"function","name":"proposalDeadline","inputs":[{"name":"proposalId","type":"uint256","internalType":"uint256"}],"outputs":[{"name":"","type":"uint256","internalType":"uint256"}],"stateMutability":"view"},{"type":"function","name":"proposalDetails","inputs":[{"name":"proposalId","type":"uint256","internalType":"uint256"}],"outputs":[{"name":"targets","type":"address[]","internalType":"address[]"},{"name":"values","type":"uint256[]","internalType":"uint256[]"},{"name":"calldatas","type":"bytes[]","internalType":"bytes[]"},{"name":"descriptionHash","type":"bytes32","internalType":"bytes32"}],"stateMutability":"view"},{"type":"function","name":"proposalDetailsAt","inputs":[{"name":"index","type":"uint256","internalType":"uint256"}],"outputs":[{"name":"proposalId","type":"uint256","internalType":"uint256"},{"name":"targets","type":"address[]","internalType":"address[]"},{"name":"values","type":"uint256[]","internalType":"uint256[]"},{"name":"calldatas","type":"bytes[]","internalType":"bytes[]"},{"name":"descriptionHash","type":"bytes32","internalType":"bytes32"}],"stateMutability":"view"},{"type":"function","name":"proposalEta","inputs":[{"name":"proposalId","type":"uint256","internalType":"uint256"}],"outputs":[{"name":"","type":"uint256","internalType":"uint256"}],"stateMutability":"view"},{"type":"function","name":"proposalNeedsQueuing","inputs":[{"name":"proposalId","type":"uint256","internalType":"uint256"}],"outputs":[{"name":"","type":"bool","internalType":"bool"}],"stateMutability":"view"},{"type":"function","name":"proposalProposer","inputs":[{"name":"proposalId","type":"uint256","internalType":"uint256"}],"outputs":[{"name":"","type":"address","internalType":"address"}],"stateMutability":"view"},{"type":"function","name":"proposalSnapshot","inputs":[{"name":"proposalId","type":"uint256","internalType":"uint256"}],"outputs":[{"name":"","type":"uint256","internalType":"uint256"}],"stateMutability":"view"},{"type":"function","name":"proposalThreshold","inputs":[],"outputs":[{"name":"","type":"uint256","internalType":"uint256"}],"stateMutability":"view"},{"type":"function","name":"proposalVotes","inputs":[{"name":"proposalId","type":"uint256","internalType":"uint256"}],"outputs":[{"name":"againstVotes","type":"uint256","internalType":"uint256"},{"name":"forVotes","type":"uint256","internalType":"uint256"},{"name":"abstainVotes","type":"uint256","internalType":"uint256"}],"stateMutability":"view"},{"type":"function","name":"propose","inputs":[{"name":"targets","type":"address[]","internalType":"address[]"},{"name":"values","type":"uint256[]","internalType":"uint256[]"},{"name":"calldatas","type":"bytes[]","internalType":"bytes[]"},{"name":"description","type":"string","internalType":"string"}],"outputs":[{"name":"","type":"uint256","internalType":"uint256"}],"stateMutability":"nonpayable"},{"type":"function","name":"queue","inputs":[{"name":"targets","type":"address[]","internalType":"address[]"},{"name":"values","type":"uint256[]","internalType":"uint256[]"},{"name":"calldatas","type":"bytes[]","internalType":"bytes[]"},{"name":"descriptionHash","type":"bytes32","internalType":"bytes32"}],"outputs":[{"name":"","type":"uint256","internalType":"uint256"}],"stateMutability":"nonpayable"},{"type":"function","name":"queue","inputs":[{"name":"proposalId","type":"uint256","internalType":"uint256"}],"outputs":[],"stateMutability":"nonpayable"},{"type":"function","name":"quorum","inputs":[{"name":"blockNumber","type":"uint256","internalType":"uint256"}],"outputs":[{"name":"","type":"uint256","internalType":"uint256"}],"stateMutability":"view"},{"type":"function","name":"quorumDenominator","inputs":[],"outputs":[{"name":"","type":"uint256","internalType":"uint256"}],"stateMutability":"view"},{"type":"function","name":"quorumNumerator","inputs":[{"name":"timepoint","type":"uint256","internalType":"uint256"}],"outputs":[{"name":"","type":"uint256","internalType":"uint256"}],"stateMutability":"view"},{"type":"function","name":"quorumNumerator","inputs":[],"outputs":[{"name":"","type":"uint256","internalType":"uint256"}],"stateMutability":"view"},{"type":"function","name":"relay","inputs":[{"name":"target","type":"address","internalType":"address"},{"name":"value","type":"uint256","internalType":"uint256"},{"name":"data","type":"bytes","internalType":"bytes"}],"outputs":[],"stateMutability":"payable"},{"type":"function","name":"setProposalThreshold","inputs":[{"name":"newProposalThreshold","type":"uint256","internalType":"uint256"}],"outputs":[],"stateMutability":"nonpayable"},{"type":"function","name":"setVotingDelay","inputs":[{"name":"newVotingDelay","type":"uint48","internalType":"uint48"}],"outputs":[],"stateMutability":"nonpayable"},{"type":"function","name":"setVotingPeriod","inputs":[{"name":"newVotingPeriod","type":"uint32","internalType":"uint32"}],"outputs":[],"stateMutability":"nonpayable"},{"type":"function","name":"state","inputs":[{"name":"proposalId","type":"uint256","internalType":"uint256"}],"outputs":[{"name":"","type":"uint8","internalType":"enum IGovernor.ProposalState"}],"stateMutability":"view"},{"type":"function","name":"supportsInterface","inputs":[{"name":"interfaceId","type":"bytes4","internalType":"bytes4"}],"outputs":[{"name":"","type":"bool","internalType":"bool"}],"stateMutability":"view"},{"type":"function","name":"timelock","inputs":[],"outputs":[{"name":"","type":"address","internalType":"address"}],"stateMutability":"view"},{"type":"function","name":"token","inputs":[],"outputs":[{"name":"","type":"address","internalType":"contract IERC5805"}],"stateMutability":"view"},{"type":"function","name":"updateQuorumNumerator","inputs":[{"name":"newQuorumNumerator","type":"uint256","internalType":"uint256"}],"outputs":[],"stateMutability":"nonpayable"},{"type":"function","name":"updateTimelock","inputs":[{"name":"newTimelock","type":"address","internalType":"contract TimelockController"}],"outputs":[],"stateMutability":"nonpayable"},{"type":"function","name":"version","inputs":[],"outputs":[{"name":"","type":"string","internalType":"string"}],"stateMutability":"view"},{"type":"function","name":"votingDelay","inputs":[],"outputs":[{"name":"","type":"uint256","internalType":"uint256"}],"stateMutability":"view"},{"type":"function","name":"votingPeriod","inputs":[],"outputs":[{"name":"","type":"uint256","internalType":"uint256"}],"stateMutability":"view"},{"type":"event","name":"EIP712DomainChanged","inputs":[],"anonymous":false},{"type":"event","name":"ProposalCanceled","inputs":[{"name":"proposalId","type":"uint256","indexed":false,"internalType":"uint256"}],"anonymous":false},{"type":"event","name":"ProposalCreated","inputs":[{"name":"proposalId","type":"uint256","indexed":false,"internalType":"uint256"},{"name":"proposer","type":"address","indexed":false,"internalType":"address"},{"name":"targets","type":"address[]","indexed":false,"internalType":"address[]"},{"name":"values","type":"uint256[]","indexed":false,"internalType":"uint256[]"},{"name":"signatures","type":"string[]","indexed":false,"internalType":"string[]"},{"name":"calldatas","type":"bytes[]","indexed":false,"internalType":"bytes[]"},{"name":"voteStart","type":"uint256","indexed":false,"internalType":"uint256"},{"name":"voteEnd","type":"uint256","indexed":false,"internalType":"uint256"},{"name":"description","type":"string","indexed":false,"internalType":"string"}],"anonymous":false},{"type":"event","name":"ProposalExecuted","inputs":[{"name":"proposalId","type":"uint256","indexed":false,"internalType":"uint256"}],"anonymous":false},{"type":"event","name":"ProposalQueued","inputs":[{"name":"proposalId","type":"uint256","indexed":false,"internalType":"uint256"},{"name":"etaSeconds","type":"uint256","indexed":false,"internalType":"uint256"}],"anonymous":false},{"type":"event","name":"ProposalThresholdSet","inputs":[{"name":"oldProposalThreshold","type":"uint256","indexed":false,"internalType":"uint256"},{"name":"newProposalThreshold","type":"uint256","indexed":false,"internalType":"uint256"}],"anonymous":false},{"type":"event","name":"QuorumNumeratorUpdated","inputs":[{"name":"oldQuorumNumerator","type":"uint256","indexed":false,"internalType":"uint256"},{"name":"newQuorumNumerator","type":"uint256","indexed":false,"internalType":"uint256"}],"anonymous":false},{"type":"event","name":"TimelockChange","inputs":[{"name":"oldTimelock","type":"address","indexed":false,"internalType":"address"},{"name":"newTimelock","type":"address","indexed":false,"internalType":"address"}],"anonymous":false},{"type":"event","name":"VoteCast","inputs":[{"name":"voter","type":"address","indexed":true,"internalType":"address"},{"name":"proposalId","type":"uint256","indexed":false,"internalType":"uint256"},{"name":"support","type":"uint8","indexed":false,"internalType":"uint8"},{"name":"weight","type":"uint256","indexed":false,"internalType":"uint256"},{"name":"reason","type":"string","indexed":false,"internalType":"string"}],"anonymous":false},{"type":"event","name":"VoteCastWithParams","inputs":[{"name":"voter","type":"address","indexed":true,"internalType":"address"},{"name":"proposalId","type":"uint256","indexed":false,"internalType":"uint256"},{"name":"support","type":"uint8","indexed":false,"internalType":"uint8"},{"name":"weight","type":"uint256","indexed":false,"internalType":"uint256"},{"name":"reason","type":"string","indexed":false,"internalType":"string"},{"name":"params","type":"bytes","indexed":false,"internalType":"bytes"}],"anonymous":false},{"type":"event","name":"VotingDelaySet","inputs":[{"name":"oldVotingDelay","type":"uint256","indexed":false,"internalType":"uint256"},{"name":"newVotingDelay","type":"uint256","indexed":false,"internalType":"uint256"}],"anonymous":false},{"type":"event","name":"VotingPeriodSet","inputs":[{"name":"oldVotingPeriod","type":"uint256","indexed":false,"internalType":"uint256"},{"name":"newVotingPeriod","type":"uint256","indexed":false,"internalType":"uint256"}],"anonymous":false},{"type":"error","name":"CheckpointUnorderedInsertion","inputs":[]},{"type":"error","name":"FailedCall","inputs":[]},{"type":"error","name":"GovernorAlreadyCastVote","inputs":[{"name":"voter","type":"address","internalType":"address"}]},{"type":"error","name":"GovernorAlreadyQueuedProposal","inputs":[{"name":"proposalId","type":"uint256","internalType":"uint256"}]},{"type":"error","name":"GovernorDisabledDeposit","inputs":[]},{"type":"error","name":"GovernorInsufficientProposerVotes","inputs":[{"name":"proposer","type":"address","internalType":"address"},{"name":"votes","type":"uint256","internalType":"uint256"},{"name":"threshold","type":"uint256","internalType":"uint256"}]},{"type":"error","name":"GovernorInvalidProposalLength","inputs":[{"name":"targets","type":"uint256","internalType":"uint256"},{"name":"calldatas","type":"uint256","internalType":"uint256"},{"name":"values","type":"uint256","internalType":"uint256"}]},{"type":"error","name":"GovernorInvalidQuorumFraction","inputs":[{"name":"quorumNumerator","type":"uint256","internalType":"uint256"},{"name":"quorumDenominator","type":"uint256","internalType":"uint256"}]},{"type":"error","name":"GovernorInvalidSignature","inputs":[{"name":"voter","type":"address","internalType":"address"}]},{"type":"error","name":"GovernorInvalidVoteParams","inputs":[]},{"type":"error","name":"GovernorInvalidVoteType","inputs":[]},{"type":"error","name":"GovernorInvalidVotingPeriod","inputs":[{"name":"votingPeriod","type":"uint256","internalType":"uint256"}]},{"type":"error","name":"GovernorNonexistentProposal","inputs":[{"name":"proposalId","type":"uint256","internalType":"uint256"}]},{"type":"error","name":"GovernorNotQueuedProposal","inputs":[{"name":"proposalId","type":"uint256","internalType":"uint256"}]},{"type":"error","name":"GovernorOnlyExecutor","inputs":[{"name":"account","type":"address","internalType":"address"}]},{"type":"error","name":"GovernorOnlyProposer","inputs":[{"name":"account","type":"address","internalType":"address"}]},{"type":"error","name":"GovernorQueueNotImplemented","inputs":[]},{"type":"error","name":"GovernorRestrictedProposer","inputs":[{"name":"proposer","type":"address","internalType":"address"}]},{"type":"error","name":"GovernorUnexpectedProposalState","inputs":[{"name":"proposalId","type":"uint256","internalType":"uint256"},{"name":"current","type":"uint8","internalType":"enum IGovernor.ProposalState"},{"name":"expectedStates","type":"bytes32","internalType":"bytes32"}]},{"type":"error","name":"InvalidAccountNonce","inputs":[{"name":"account","type":"address","internalType":"address"},{"name":"currentNonce","type":"uint256","internalType":"uint256"}]},{"type":"error","name":"InvalidShortString","inputs":[]},{"type":"error","name":"SafeCastOverflowedUintDowncast","inputs":[{"name":"bits","type":"uint8","internalType":"uint8"},{"name":"value","type":"uint256","internalType":"uint256"}]},{"type":"error","name":"StringTooLong","inputs":[{"name":"str","type":"string","internalType":"string"}]}],"bytecode":{"object":"0x610180604052348015610010575f5ffd5b50604051615a56380380615a5683398101604081905261002f91610723565b80600483603c6102585f604051806040016040528060118152602001702a3934b237b934b0b723b7bb32b93737b960791b8152508061007261017560201b60201c565b61007c825f610190565b6101205261008b816001610190565b61014052815160208084019190912060e052815190820120610100524660a05261011760e05161010051604080517f8b73c3c69bb8fe3d512ecc4cf759cc79239f7b179b0ffacaa9a75d522b39400f60208201529081019290925260608201524660808201523060a08201525f9060c00160405160208183030381529060405280519060200120905090565b60805250503060c052600361012c82826107f3565b506101389050836101c2565b61014182610228565b61014a816102cc565b5050506001600160a01b0316610160526101638161030d565b5061016d816103a2565b505050610949565b6040805180820190915260018152603160f81b602082015290565b5f6020835110156101ab576101a48361040b565b90506101bc565b816101b684826107f3565b5060ff90505b92915050565b6008546040805165ffffffffffff928316815291831660208301527fc565b045403dc03c2eea82b81a0465edad9e2e7fc4d97e11421c209da93d7a93910160405180910390a16008805465ffffffffffff191665ffffffffffff92909216919091179055565b8063ffffffff165f036102555760405163f1cfbf0560e01b81525f60048201526024015b60405180910390fd5b6008546040805163ffffffff66010000000000009093048316815291831660208301527f7e3f7f0708a84de9203036abaa450dccc85ad5ff52f78c170f3edb55cf5e8828910160405180910390a16008805463ffffffff90921666010000000000000263ffffffff60301b19909216919091179055565b60075460408051918252602082018390527fccb45da8d5717e6c4544694297c4ba5cf151d455c9bb0ed4fc7a38411bc05461910160405180910390a1600755565b60648082111561033a5760405163243e544560e01b8152600481018390526024810182905260440161024c565b5f610343610448565b9050610362610350610461565b610359856104db565b600c9190610512565b505060408051828152602081018590527f0553476bf02ef2726e8ce5ced78d63e26e602e4a2257b1f559418e24b4633997910160405180910390a1505050565b600d54604080516001600160a01b03928316815291831660208301527f08f74ea46ef7894f65eabfb5e6e695de773a000b47c529ab559178069b226401910160405180910390a1600d80546001600160a01b0319166001600160a01b0392909216919091179055565b5f5f829050601f81511115610435578260405163305a27a960e01b815260040161024c91906108ad565b8051610440826108e2565b179392505050565b5f610453600c61052c565b6001600160d01b0316905090565b5f61046c6101605190565b6001600160a01b03166391ddadf46040518163ffffffff1660e01b8152600401602060405180830381865afa9250505080156104c5575060408051601f3d908101601f191682019092526104c291810190610905565b60015b6104d6576104d1610574565b905090565b919050565b5f6001600160d01b0382111561050e576040516306dfcc6560e41b815260d060048201526024810183905260440161024c565b5090565b5f8061051f85858561057e565b915091505b935093915050565b80545f90801561056b576105528361054560018461092a565b5f91825260209091200190565b54660100000000000090046001600160d01b031661056d565b5f5b9392505050565b5f6104d1436106da565b82545f908190801561067d575f61059a8761054560018561092a565b805490915065ffffffffffff80821691660100000000000090046001600160d01b03169088168211156105e057604051632520601d60e01b815260040160405180910390fd5b8765ffffffffffff168265ffffffffffff160361061c57825465ffffffffffff1666010000000000006001600160d01b0389160217835561066f565b6040805180820190915265ffffffffffff808a1682526001600160d01b03808a1660208085019182528d54600181018f555f8f815291909120945191519092166601000000000000029216919091179101555b945085935061052492505050565b50506040805180820190915265ffffffffffff80851682526001600160d01b0380851660208085019182528854600181018a555f8a8152918220955192519093166601000000000000029190931617920191909155905081610524565b5f65ffffffffffff82111561050e576040516306dfcc6560e41b8152603060048201526024810183905260440161024c565b6001600160a01b0381168114610720575f5ffd5b50565b5f5f60408385031215610734575f5ffd5b825161073f8161070c565b60208401519092506107508161070c565b809150509250929050565b634e487b7160e01b5f52604160045260245ffd5b600181811c9082168061078357607f821691505b6020821081036107a157634e487b7160e01b5f52602260045260245ffd5b50919050565b601f8211156107ee57805f5260205f20601f840160051c810160208510156107cc5750805b601f840160051c820191505b818110156107eb575f81556001016107d8565b50505b505050565b81516001600160401b0381111561080c5761080c61075b565b6108208161081a845461076f565b846107a7565b6020601f821160018114610852575f831561083b5750848201515b5f19600385901b1c1916600184901b1784556107eb565b5f84815260208120601f198516915b828110156108815787850151825560209485019460019092019101610861565b508482101561089e57868401515f19600387901b60f8161c191681555b50505050600190811b01905550565b602081525f82518060208401528060208501604085015e5f604082850101526040601f19601f83011684010191505092915050565b805160208083015191908110156107a1575f1960209190910360031b1b16919050565b5f60208284031215610915575f5ffd5b815165ffffffffffff8116811461056d575f5ffd5b818103818111156101bc57634e487b7160e01b5f52601160045260245ffd5b60805160a05160c05160e051610100516101205161014051610160516150966109c05f395f8181610bba015281816113f5015281816119890152818161271e015261297101525f6126eb01525f6126bf01525f61304301525f61301b01525f612f7601525f612fa001525f612fca01526150965ff3fe608060405260043610610374575f3560e01c80637d5e81e2116101c8578063c28bc2fa116100fd578063e40824f81161009d578063f23a6e611161006d578063f23a6e6114610b6e578063f8ce560a14610b8d578063fc0c546a14610bac578063fe0d94c114610bde575f5ffd5b8063e40824f814610af2578063e540d01d14610b11578063eb9019d414610b30578063ece40cc114610b4f575f5ffd5b8063da35c664116100d8578063da35c66414610a47578063dd4e2ba514610a5b578063ddf0b00914610aa0578063deaaa7cc14610abf575f5ffd5b8063c28bc2fa146109f8578063c59057e414610a0b578063d33219b414610a2a575f5ffd5b8063a7713a7011610168578063ab58fb8e11610143578063ab58fb8e14610970578063b58131b0146109a6578063bc197c81146109ba578063c01f9e37146109d9575f5ffd5b8063a7713a701461091e578063a890c91014610932578063a9a9529414610951575f5ffd5b80638ff262e3116101a35780638ff262e3146108a257806391ddadf4146108c157806397c3d334146108ec5780639a802a6d146108ff575f5ffd5b80637d5e81e2146108285780637ecebe001461084757806384b0196e1461087b575f5ffd5b80633932abb1116102a957806354fd4d50116102495780635f398a14116102195780635f398a14146107ac57806360c4247f146107cb57806379051887146107ea5780637b3c71d314610809575f5ffd5b806354fd4d50146107245780635584c4f91461074d578063567813881461076e5780635b8d0e0d1461078d575f5ffd5b806343859632116102845780634385963214610656578063452115d61461069e5780634bf5d7e9146106bd578063544ffc9c146106d1575f5ffd5b80633932abb1146105f75780633e4f49e61461060b57806340e58ee514610637575f5ffd5b8063160cbed7116103145780632656227d116102ef5780632656227d146105625780632d63f693146105755780632e82db94146105945780632fe3e261146105c4575f5ffd5b8063160cbed7146104e6578063164b3d2f1461050557806316e9eaec14610533575f5ffd5b806306f3f9e61161034f57806306f3f9e61461042257806306fdde0314610441578063143489d014610462578063150b7a02146104ae575f5ffd5b806301ffc9a7146103af57806302a251a3146103e35780630555cac21461040e575f5ffd5b366103ab5730610382610bf1565b6001600160a01b0316146103a957604051637485328f60e11b815260040160405180910390fd5b005b5f5ffd5b3480156103ba575f5ffd5b506103ce6103c9366004613f06565b610c09565b60405190151581526020015b60405180910390f35b3480156103ee575f5ffd5b50600854600160301b900463ffffffff165b6040519081526020016103da565b348015610419575f5ffd5b50600f54610400565b34801561042d575f5ffd5b506103a961043c366004613f2d565b610c5a565b34801561044c575f5ffd5b50610455610c6e565b6040516103da9190613f72565b34801561046d575f5ffd5b5061049661047c366004613f2d565b5f908152600460205260409020546001600160a01b031690565b6040516001600160a01b0390911681526020016103da565b3480156104b9575f5ffd5b506104cd6104c836600461405b565b610cfe565b6040516001600160e01b031990911681526020016103da565b3480156104f1575f5ffd5b50610400610500366004614221565b610d40565b348015610510575f5ffd5b506103ce61051f366004613f2d565b5f9081526010602052604090205460ff1690565b34801561053e575f5ffd5b5061055261054d366004613f2d565b610e0c565b6040516103da9493929190614381565b610400610570366004614221565b61100b565b348015610580575f5ffd5b5061040061058f366004613f2d565b611173565b34801561059f575f5ffd5b506105b36105ae366004613f2d565b611193565b6040516103da9594939291906143cb565b3480156105cf575f5ffd5b506104007f3e83946653575f9a39005e1545185629e92736b7528ab20ca3816f315424a81181565b348015610602575f5ffd5b506104006111d2565b348015610616575f5ffd5b5061062a610625366004613f2d565b6111e4565b6040516103da9190614450565b348015610642575f5ffd5b506103a9610651366004613f2d565b6111ee565b348015610661575f5ffd5b506103ce61067036600461445e565b5f8281526009602090815260408083206001600160a01b038516845260030190915290205460ff1692915050565b3480156106a9575f5ffd5b506104006106b8366004614221565b611385565b3480156106c8575f5ffd5b506104556113f1565b3480156106dc575f5ffd5b506107096106eb366004613f2d565b5f908152600960205260409020805460018201546002909201549092565b604080519384526020840192909252908201526060016103da565b34801561072f575f5ffd5b506040805180820190915260018152603160f81b6020820152610455565b348015610758575f5ffd5b506107616114b1565b6040516103da919061448c565b348015610779575f5ffd5b506104006107883660046144ae565b611506565b348015610798575f5ffd5b506104006107a736600461451c565b61152d565b3480156107b7575f5ffd5b506104006107c63660046145d8565b611689565b3480156107d6575f5ffd5b506104006107e5366004613f2d565b6116dc565b3480156107f5575f5ffd5b506103a961080436600461466c565b611768565b348015610814575f5ffd5b50610400610823366004614687565b611779565b348015610833575f5ffd5b506104006108423660046146dc565b6117bf565b348015610852575f5ffd5b50610400610861366004614798565b6001600160a01b03165f9081526002602052604090205490565b348015610886575f5ffd5b5061088f611875565b6040516103da97969594939291906147b3565b3480156108ad575f5ffd5b506104006108bc366004614822565b6118b7565b3480156108cc575f5ffd5b506108d5611986565b60405165ffffffffffff90911681526020016103da565b3480156108f7575f5ffd5b506064610400565b34801561090a575f5ffd5b5061040061091936600461486f565b611a0d565b348015610929575f5ffd5b50610400611a23565b34801561093d575f5ffd5b506103a961094c366004614798565b611a3c565b34801561095c575f5ffd5b506103ce61096b366004613f2d565b611a4d565b34801561097b575f5ffd5b5061040061098a366004613f2d565b5f9081526004602052604090206001015465ffffffffffff1690565b3480156109b1575f5ffd5b50610400611a55565b3480156109c5575f5ffd5b506104cd6109d43660046148c3565b611a5f565b3480156109e4575f5ffd5b506104006109f3366004613f2d565b611aa2565b6103a9610a0636600461495a565b611ae4565b348015610a16575f5ffd5b50610400610a25366004614221565b611b60565b348015610a35575f5ffd5b50600d546001600160a01b0316610496565b348015610a52575f5ffd5b50600a54610400565b348015610a66575f5ffd5b506040805180820190915260208082527f737570706f72743d627261766f2671756f72756d3d666f722c6162737461696e90820152610455565b348015610aab575f5ffd5b506103a9610aba366004613f2d565b611b99565b348015610aca575f5ffd5b506104007ff2aad550cf55f045cb27e9c559f9889fdfb6e6cdaa032301d6ea397784ae51d781565b348015610afd575f5ffd5b50610400610b0c366004613f2d565b611d2b565b348015610b1c575f5ffd5b506103a9610b2b366004614999565b611d4a565b348015610b3b575f5ffd5b50610400610b4a3660046149bc565b611d5b565b348015610b5a575f5ffd5b506103a9610b69366004613f2d565b611d7a565b348015610b79575f5ffd5b506104cd610b883660046149e6565b611d8b565b348015610b98575f5ffd5b50610400610ba7366004613f2d565b611dce565b348015610bb7575f5ffd5b507f0000000000000000000000000000000000000000000000000000000000000000610496565b6103a9610bec366004613f2d565b611dd8565b5f610c04600d546001600160a01b031690565b905090565b5f6001600160e01b031982166332a2ad4360e11b1480610c3957506001600160e01b03198216630271189760e51b145b80610c5457506301ffc9a760e01b6001600160e01b03198316145b92915050565b610c62611f6a565b610c6b81611fe3565b50565b606060038054610c7d90614a3d565b80601f0160208091040260200160405190810160405280929190818152602001828054610ca990614a3d565b8015610cf45780601f10610ccb57610100808354040283529160200191610cf4565b820191905f5260205f20905b815481529060010190602001808311610cd757829003601f168201915b5050505050905090565b5f30610d08610bf1565b6001600160a01b031614610d2f57604051637485328f60e11b815260040160405180910390fd5b50630a85bd0160e11b949350505050565b5f5f610d4e86868686611b60565b9050610d6381610d5e6004612078565b61209a565b505f610d7282888888886120d7565b905065ffffffffffff811615610de9575f82815260046020908152604091829020600101805465ffffffffffff191665ffffffffffff85169081179091558251858152918201527f9a2e42fd6722813d69113e7d0079d3d940171428df7373df9c7f7617cfda2892910160405180910390a1610e02565b604051634844252360e11b815260040160405180910390fd5b5095945050505050565b5f818152600b602090815260408083208151815460a0948102820185019093526080810183815260609586958695919485949390928492849190840182828015610e7d57602002820191905f5260205f20905b81546001600160a01b03168152600190910190602001808311610e5f575b5050505050815260200160018201805480602002602001604051908101604052809291908181526020018280548015610ed357602002820191905f5260205f20905b815481526020019060010190808311610ebf575b5050505050815260200160028201805480602002602001604051908101604052809291908181526020015f905b82821015610fa8578382905f5260205f20018054610f1d90614a3d565b80601f0160208091040260200160405190810160405280929190818152602001828054610f4990614a3d565b8015610f945780601f10610f6b57610100808354040283529160200191610f94565b820191905f5260205f20905b815481529060010190602001808311610f7757829003601f168201915b505050505081526020019060010190610f00565b505050508152602001600382015481525050905080606001515f5f1b03610fea57604051636ad0607560e01b8152600481018790526024015b60405180910390fd5b80516020820151604083015160609093015191989097509195509350915050565b5f5f61101986868686611b60565b9050611039816110296005612078565b6110336004612078565b1761209a565b505f818152600460205260409020805460ff60f01b1916600160f01b17905530611061610bf1565b6001600160a01b0316146110ea575f5b86518110156110e857306001600160a01b031687828151811061109657611096614a75565b60200260200101516001600160a01b0316036110e0576110e08582815181106110c1576110c1614a75565b602002602001015180519060200120600561210390919063ffffffff16565b600101611071565b505b6110f78187878787612164565b30611100610bf1565b6001600160a01b03161415801561112c57506005546001600160801b03808216600160801b9092041614155b15611136575f6005555b6040518181527f712ae1383f79ac853f8d882153778e0260ef8f03b504e2866e0593e04d2b291f906020015b60405180910390a195945050505050565b5f90815260046020526040902054600160a01b900465ffffffffffff1690565b5f60608060605f600a86815481106111ad576111ad614a75565b905f5260205f20015494506111c185610e0c565b979992985090969095509350915050565b5f610c0460085465ffffffffffff1690565b5f610c5482612178565b5f818152600b602090815260409182902080548351818402810184019094528084529092611380929091849183018282801561125157602002820191905f5260205f20905b81546001600160a01b03168152600190910190602001808311611233575b5050505050826001018054806020026020016040519081016040528092919081815260200182805480156112a257602002820191905f5260205f20905b81548152602001906001019080831161128e575b505050505083600201805480602002602001604051908101604052809291908181526020015f905b82821015611372578382905f5260205f200180546112e790614a3d565b80601f016020809104026020016040519081016040528092919081815260200182805461131390614a3d565b801561135e5780601f106113355761010080835404028352916020019161135e565b820191905f5260205f20905b81548152906001019060200180831161134157829003601f168201915b5050505050815260200190600101906112ca565b505050508460030154611385565b505050565b5f5f61139386868686611b60565b90506113a281610d5e5f612078565b505f818152600460205260409020546001600160a01b031633146113db5760405163233d98e360e01b8152336004820152602401610fe1565b6113e7868686866122b1565b9695505050505050565b60607f00000000000000000000000000000000000000000000000000000000000000006001600160a01b0316634bf5d7e96040518163ffffffff1660e01b81526004015f60405180830381865afa92505050801561147057506040513d5f823e601f3d908101601f1916820160405261146d9190810190614a89565b60015b6114ac575060408051808201909152601d81527f6d6f64653d626c6f636b6e756d6265722666726f6d3d64656661756c74000000602082015290565b919050565b6060600f805480602002602001604051908101604052809291908181526020018280548015610cf457602002820191905f5260205f20905b8154815260200190600101908083116114e9575050505050905090565b5f8033905061152584828560405180602001604052805f8152506122ea565b949350505050565b5f5f61160e876116087f3e83946653575f9a39005e1545185629e92736b7528ab20ca3816f315424a8118c8c8c6115808e6001600160a01b03165f90815260026020526040902080546001810190915590565b8d8d604051611590929190614afd565b60405180910390208c805190602001206040516020016115ed9796959493929190968752602087019590955260ff9390931660408601526001600160a01b03919091166060850152608084015260a083015260c082015260e00190565b6040516020818303038152906040528051906020012061230b565b85612337565b905080611639576040516394ab6c0760e01b81526001600160a01b0388166004820152602401610fe1565b61167c89888a89898080601f0160208091040260200160405190810160405280939291908181526020018383808284375f920191909152508b92506123a7915050565b9998505050505050505050565b5f803390506116d187828888888080601f0160208091040260200160405190810160405280939291908181526020018383808284375f920191909152508a92506123a7915050565b979650505050505050565b600c80545f9182906116ef600184614b20565b815481106116ff576116ff614a75565b5f918252602090912001805490915065ffffffffffff811690600160301b90046001600160d01b0316858211611741576001600160d01b031695945050505050565b61175561174d87612485565b600c906124bb565b6001600160d01b03169695505050505050565b611770611f6a565b610c6b8161256a565b5f803390506113e786828787878080601f0160208091040260200160405190810160405280939291908181526020018383808284375f920191909152506122ea92505050565b5f336117cb81846125d0565b6117f35760405163d9b3955760e01b81526001600160a01b0382166004820152602401610fe1565b5f6117fc611a55565b90508015611868575f61182a836001611813611986565b61181d9190614b33565b65ffffffffffff16611d5b565b90508181101561186657604051636121770b60e11b81526001600160a01b03841660048201526024810182905260448101839052606401610fe1565b505b6116d18787878786612655565b5f6060805f5f5f60606118866126b8565b61188e6126e4565b604080515f80825260208201909252600f60f81b9b939a50919850469750309650945092509050565b5f5f611941846116087ff2aad550cf55f045cb27e9c559f9889fdfb6e6cdaa032301d6ea397784ae51d789898961190a8b6001600160a01b03165f90815260026020526040902080546001810190915590565b60408051602081019690965285019390935260ff90911660608401526001600160a01b0316608083015260a082015260c0016115ed565b90508061196c576040516394ab6c0760e01b81526001600160a01b0385166004820152602401610fe1565b6113e786858760405180602001604052805f8152506122ea565b5f7f00000000000000000000000000000000000000000000000000000000000000006001600160a01b03166391ddadf46040518163ffffffff1660e01b8152600401602060405180830381865afa925050508015611a01575060408051601f3d908101601f191682019092526119fe91810190614b51565b60015b6114ac57610c04612711565b5f611a1984848461271b565b90505b9392505050565b5f611a2e600c6127ae565b6001600160d01b0316905090565b611a44611f6a565b610c6b816127e5565b5f6001610c54565b5f610c0460075490565b5f30611a69610bf1565b6001600160a01b031614611a9057604051637485328f60e11b815260040160405180910390fd5b5063bc197c8160e01b95945050505050565b5f81815260046020526040812054611ad690600160d01b810463ffffffff1690600160a01b900465ffffffffffff16614b6c565b65ffffffffffff1692915050565b611aec611f6a565b5f5f856001600160a01b0316858585604051611b09929190614afd565b5f6040518083038185875af1925050503d805f8114611b43576040519150601f19603f3d011682016040523d82523d5f602084013e611b48565b606091505b5091509150611b57828261284e565b50505050505050565b5f84848484604051602001611b789493929190614381565b60408051601f19818403018152919052805160209091012095945050505050565b5f818152600b6020908152604091829020805483518184028101840190945280845290926113809290918491830182828015611bfc57602002820191905f5260205f20905b81546001600160a01b03168152600190910190602001808311611bde575b505050505082600101805480602002602001604051908101604052809291908181526020018280548015611c4d57602002820191905f5260205f20905b815481526020019060010190808311611c39575b505050505083600201805480602002602001604051908101604052809291908181526020015f905b82821015611d1d578382905f5260205f20018054611c9290614a3d565b80601f0160208091040260200160405190810160405280929190818152602001828054611cbe90614a3d565b8015611d095780601f10611ce057610100808354040283529160200191611d09565b820191905f5260205f20905b815481529060010190602001808311611cec57829003601f168201915b505050505081526020019060010190611c75565b505050508460030154610d40565b600f8181548110611d3a575f80fd5b5f91825260209091200154905081565b611d52611f6a565b610c6b8161286a565b5f611a1c8383611d7560408051602081019091525f815290565b61271b565b611d82611f6a565b610c6b81612906565b5f30611d95610bf1565b6001600160a01b031614611dbc57604051637485328f60e11b815260040160405180910390fd5b5063f23a6e6160e01b95945050505050565b5f610c5482612947565b5f818152600b6020908152604091829020805483518184028101840190945280845290926113809290918491830182828015611e3b57602002820191905f5260205f20905b81546001600160a01b03168152600190910190602001808311611e1d575b505050505082600101805480602002602001604051908101604052809291908181526020018280548015611e8c57602002820191905f5260205f20905b815481526020019060010190808311611e78575b505050505083600201805480602002602001604051908101604052809291908181526020015f905b82821015611f5c578382905f5260205f20018054611ed190614a3d565b80601f0160208091040260200160405190810160405280929190818152602001828054611efd90614a3d565b8015611f485780601f10611f1f57610100808354040283529160200191611f48565b820191905f5260205f20905b815481529060010190602001808311611f2b57829003601f168201915b505050505081526020019060010190611eb4565b50505050846003015461100b565b33611f73610bf1565b6001600160a01b031614611f9c576040516347096e4760e01b8152336004820152602401610fe1565b30611fa5610bf1565b6001600160a01b031614611fe1575f8036604051611fc4929190614afd565b604051809103902090505b80611fda60056129ee565b03611fcf57505b565b6064808211156120105760405163243e544560e01b81526004810183905260248101829052604401610fe1565b5f612019611a23565b9050612038612026611986565b61202f85612a5b565b600c9190612a8e565b505060408051828152602081018590527f0553476bf02ef2726e8ce5ced78d63e26e602e4a2257b1f559418e24b4633997910160405180910390a1505050565b5f81600781111561208b5761208b61441c565b600160ff919091161b92915050565b5f5f6120a5846111e4565b90505f836120b283612078565b1603611a1c578381846040516331b75e4d60e01b8152600401610fe193929190614b8a565b5f8581526010602052604081205460ff16156120f6576120f686612aa8565b6113e78686868686612b64565b81546001600160801b03600160801b82048116918116600183019091160361212f5761212f6041612d01565b6001600160801b038082165f90815260018086016020526040909120939093558354919092018216600160801b029116179055565b6121718585858585612d12565b5050505050565b5f5f61218383612da2565b905060058160078111156121995761219961441c565b146121a45792915050565b5f838152600e60205260409081902054600d549151632c258a9f60e11b81526004810182905290916001600160a01b03169063584b153e90602401602060405180830381865afa1580156121fa573d5f5f3e3d5ffd5b505050506040513d601f19601f8201168201806040525081019061221e9190614bac565b1561222d575060059392505050565b600d54604051632ab0f52960e01b8152600481018390526001600160a01b0390911690632ab0f52990602401602060405180830381865afa158015612274573d5f5f3e3d5ffd5b505050506040513d601f19601f820116820180604052508101906122989190614bac565b156122a7575060079392505050565b5060029392505050565b5f5f6122bf86868686612ed3565b5f8181526010602052604090205490915060ff16156122e1576122e181612aa8565b95945050505050565b5f6122e18585858561230660408051602081019091525f815290565b6123a7565b5f610c54612317612f6a565b8360405161190160f01b8152600281019290925260228201526042902090565b5f836001600160a01b03163b5f03612395575f5f6123558585613093565b5090925090505f81600381111561236e5761236e61441c565b14801561238c5750856001600160a01b0316826001600160a01b0316145b92505050611a1c565b6123a08484846130dc565b9050611a1c565b5f6123b686610d5e6001612078565b505f6123cb866123c589611173565b8561271b565b90505f6123db88888885886131b2565b905083515f0361243157866001600160a01b03167fb8e138887d0aa13bab447e82de9d5c1777041ecd21ca36ba824ff1e6c07ddda4898884896040516124249493929190614bcb565b60405180910390a26116d1565b866001600160a01b03167fe2babfbac5889a709b63bb7f598b324e08bc5a4fb9ec647fb3cbc9ec07eb87128988848989604051612472959493929190614bf2565b60405180910390a2979650505050505050565b5f65ffffffffffff8211156124b7576040516306dfcc6560e41b81526030600482015260248101839052604401610fe1565b5090565b81545f9081816005811115612517575f6124d4846132ae565b6124de9085614b20565b5f8881526020902090915081015465ffffffffffff908116908716101561250757809150612515565b612512816001614c2b565b92505b505b5f61252487878585613406565b9050801561255e576125488761253b600184614b20565b5f91825260209091200190565b54600160301b90046001600160d01b03166116d1565b5f979650505050505050565b6008546040805165ffffffffffff928316815291831660208301527fc565b045403dc03c2eea82b81a0465edad9e2e7fc4d97e11421c209da93d7a93910160405180910390a16008805465ffffffffffff191665ffffffffffff92909216919091179055565b80515f9060348110156125e7576001915050610c54565b60131981840101516001600160b01b03198116692370726f706f7365723d60b01b1461261857600192505050610c54565b5f5f61262886602a860386613465565b915091508115806116d15750866001600160a01b0316816001600160a01b03161494505050505092915050565b5f5f612664878787878761350e565b600f805460018082019092557f8d1108e10bcb7c27dddfc02ed9d693a074039d026cf4ea4240b40f7d581ac802018290555f828152601060205260409020805460ff19169091179055979650505050505050565b6060610c047f00000000000000000000000000000000000000000000000000000000000000005f6135e7565b6060610c047f000000000000000000000000000000000000000000000000000000000000000060016135e7565b5f610c0443612485565b5f7f0000000000000000000000000000000000000000000000000000000000000000604051630748d63560e31b81526001600160a01b038681166004830152602482018690529190911690633a46b1a890604401602060405180830381865afa15801561278a573d5f5f3e3d5ffd5b505050506040513d601f19601f82011682018060405250810190611a199190614c3e565b80545f9080156127dd576127c78361253b600184614b20565b54600160301b90046001600160d01b0316611a1c565b5f9392505050565b600d54604080516001600160a01b03928316815291831660208301527f08f74ea46ef7894f65eabfb5e6e695de773a000b47c529ab559178069b226401910160405180910390a1600d80546001600160a01b0319166001600160a01b0392909216919091179055565b6060826128635761285e82613690565b610c54565b5080610c54565b8063ffffffff165f036128925760405163f1cfbf0560e01b81525f6004820152602401610fe1565b6008546040805163ffffffff600160301b9093048316815291831660208301527f7e3f7f0708a84de9203036abaa450dccc85ad5ff52f78c170f3edb55cf5e8828910160405180910390a16008805463ffffffff909216600160301b0269ffffffff00000000000019909216919091179055565b60075460408051918252602082018390527fccb45da8d5717e6c4544694297c4ba5cf151d455c9bb0ed4fc7a38411bc05461910160405180910390a1600755565b5f6064612953836116dc565b604051632394e7a360e21b8152600481018590526001600160a01b037f00000000000000000000000000000000000000000000000000000000000000001690638e539e8c90602401602060405180830381865afa1580156129b6573d5f5f3e3d5ffd5b505050506040513d601f19601f820116820180604052508101906129da9190614c3e565b6129e49190614c55565b610c549190614c80565b80545f906001600160801b0380821691600160801b9004168103612a1657612a166031612d01565b6001600160801b038181165f908152600185810160205260408220805492905585546fffffffffffffffffffffffffffffffff19169301909116919091179092555090565b5f6001600160d01b038211156124b7576040516306dfcc6560e41b815260d0600482015260248101839052604401610fe1565b5f80612a9b8585856136b9565b915091505b935093915050565b5f818152601060205260408120805460ff19169055600f54905b818110156113805782600f8281548110612ade57612ade614a75565b905f5260205f20015403612b5c57600f8054612afc90600190614b20565b81548110612b0c57612b0c614a75565b905f5260205f200154600f8281548110612b2857612b28614a75565b5f91825260209091200155600f805480612b4457612b44614c9f565b600190038181905f5260205f20015f90559055505050565b600101612ac2565b5f5f600d5f9054906101000a90046001600160a01b03166001600160a01b031663f27a0c926040518163ffffffff1660e01b8152600401602060405180830381865afa158015612bb6573d5f5f3e3d5ffd5b505050506040513d601f19601f82011682018060405250810190612bda9190614c3e565b90505f3060601b6bffffffffffffffffffffffff19168418600d5460405163b1c5f42760e01b81529192506001600160a01b03169063b1c5f42790612c2b908a908a908a905f908890600401614cb3565b602060405180830381865afa158015612c46573d5f5f3e3d5ffd5b505050506040513d601f19601f82011682018060405250810190612c6a9190614c3e565b5f898152600e602052604080822092909255600d5491516308f2a0bb60e41b81526001600160a01b0390921691638f2a0bb091612cb4918b918b918b919088908a90600401614d00565b5f604051808303815f87803b158015612ccb575f5ffd5b505af1158015612cdd573d5f5f3e3d5ffd5b50505050612cf58242612cf09190614c2b565b612485565b98975050505050505050565b634e487b715f52806020526024601cfd5b600d546001600160a01b031663e38335e5348686865f3060601b6bffffffffffffffffffffffff191688186040518763ffffffff1660e01b8152600401612d5d959493929190614cb3565b5f604051808303818588803b158015612d74575f5ffd5b505af1158015612d86573d5f5f3e3d5ffd5b5050505f9687525050600e602052505060408320929092555050565b5f818152600460205260408120805460ff600160f01b8204811691600160f81b9004168115612dd657506007949350505050565b8015612de757506002949350505050565b5f612df186611173565b9050805f03612e1657604051636ad0607560e01b815260048101879052602401610fe1565b5f612e1f611986565b65ffffffffffff169050808210612e3c57505f9695505050505050565b5f612e4688611aa2565b9050818110612e5d57506001979650505050505050565b612e6688613809565b1580612e8557505f888152600960205260409020805460019091015411155b15612e9857506003979650505050505050565b5f8881526004602052604090206001015465ffffffffffff165f03612ec557506004979650505050505050565b506005979650505050505050565b5f5f612ee18686868661383f565b5f818152600e60205260409020549091508015610e0257600d5460405163c4d252f560e01b8152600481018390526001600160a01b039091169063c4d252f5906024015f604051808303815f87803b158015612f3b575f5ffd5b505af1158015612f4d573d5f5f3e3d5ffd5b5050505f838152600e602052604081205550509050949350505050565b5f306001600160a01b037f000000000000000000000000000000000000000000000000000000000000000016148015612fc257507f000000000000000000000000000000000000000000000000000000000000000046145b15612fec57507f000000000000000000000000000000000000000000000000000000000000000090565b610c04604080517f8b73c3c69bb8fe3d512ecc4cf759cc79239f7b179b0ffacaa9a75d522b39400f60208201527f0000000000000000000000000000000000000000000000000000000000000000918101919091527f000000000000000000000000000000000000000000000000000000000000000060608201524660808201523060a08201525f9060c00160405160208183030381529060405280519060200120905090565b5f5f5f83516041036130ca576020840151604085015160608601515f1a6130bc888285856138ee565b9550955095505050506130d5565b505081515f91506002905b9250925092565b5f5f5f856001600160a01b031685856040516024016130fc929190614d57565b60408051601f198184030181529181526020820180516001600160e01b0316630b135d3f60e11b179052516131319190614d6f565b5f60405180830381855afa9150503d805f8114613169576040519150601f19603f3d011682016040523d82523d5f602084013e61316e565b606091505b509150915081801561318257506020815110155b80156113e757508051630b135d3f60e11b906131a79083016020908101908401614c3e565b149695505050505050565b5f8581526009602090815260408083206001600160a01b03881684526003810190925282205460ff1615613204576040516371c6af4960e01b81526001600160a01b0387166004820152602401610fe1565b6001600160a01b0386165f9081526003820160205260409020805460ff1916600117905560ff851661324d5783815f015f8282546132429190614c2b565b909155506132a39050565b5f1960ff86160161326b5783816001015f8282546132429190614c2b565b60011960ff86160161328a5783816002015f8282546132429190614c2b565b6040516303599be160e11b815260040160405180910390fd5b509195945050505050565b5f600182116132bb575090565b816001600160801b82106132d45760809190911c9060401b5b6801000000000000000082106132ef5760409190911c9060201b5b64010000000082106133065760209190911c9060101b5b62010000821061331b5760109190911c9060081b5b610100821061332f5760089190911c9060041b5b601082106133425760049190911c9060021b5b6004821061334e5760011b5b600302600190811c9081858161336657613366614c6c565b048201901c9050600181858161337e5761337e614c6c565b048201901c9050600181858161339657613396614c6c565b048201901c905060018185816133ae576133ae614c6c565b048201901c905060018185816133c6576133c6614c6c565b048201901c905060018185816133de576133de614c6c565b048201901c90506133fd8185816133f7576133f7614c6c565b04821190565b90039392505050565b5f5b8183101561345d575f61341b84846139b6565b5f8781526020902090915065ffffffffffff86169082015465ffffffffffff16111561344957809250613457565b613454816001614c2b565b93505b50613408565b509392505050565b5f5f845183118061347557508284115b1561348457505f905080612aa0565b5f613490856001614c2b565b841180156134b8575061060f60f31b6134ac8787016020015190565b6001600160f01b031916145b90505f6134c88215156002614c55565b6134d3906028614c2b565b9050806134e08787614b20565b03613501575f5f6134f28989896139d0565b9096509450612aa09350505050565b5f5f935093505050612aa0565b5f5f61351d8787878787613a91565b600a80546001810182555f9182527fc65a7bb8d6351c1cf70c95a316cc6a92839c986682d98bc35f958f4883f9d2a801829055604080516080810182528a815260208181018b90528183018a90528851898201206060830152848452600b815291909220825180519495509293909261359a928492910190613db7565b5060208281015180516135b39260018501920190613e16565b50604082015180516135cf916002840191602090910190613e4f565b50606091909101516003909101559695505050505050565b606060ff8314613601576135fa83613cab565b9050610c54565b81805461360d90614a3d565b80601f016020809104026020016040519081016040528092919081815260200182805461363990614a3d565b80156136845780601f1061365b57610100808354040283529160200191613684565b820191905f5260205f20905b81548152906001019060200180831161366757829003601f168201915b50505050509050610c54565b8051156136a05780518082602001fd5b60405163d6bda27560e01b815260040160405180910390fd5b82545f90819080156137af575f6136d58761253b600185614b20565b805490915065ffffffffffff80821691600160301b90046001600160d01b031690881682111561371857604051632520601d60e01b815260040160405180910390fd5b8765ffffffffffff168265ffffffffffff160361375157825465ffffffffffff16600160301b6001600160d01b038916021783556137a1565b6040805180820190915265ffffffffffff808a1682526001600160d01b03808a1660208085019182528d54600181018f555f8f81529190912094519151909216600160301b029216919091179101555b9450859350612aa092505050565b50506040805180820190915265ffffffffffff80851682526001600160d01b0380851660208085019182528854600181018a555f8a815291822095519251909316600160301b029190931617920191909155905081612aa0565b5f8181526009602052604081206002810154600182015461382a9190614c2b565b613836610ba785611173565b11159392505050565b5f5f61384d86868686611b60565b905061389b8161385d6007612078565b6138676006612078565b6138716002612078565b600161387e600782614d85565b613889906002614e79565b6138939190614b20565b18181861209a565b505f818152600460205260409081902080546001600160f81b0316600160f81b179055517f789cf55be980739dad1d0699b93b58e806b51c9d96619bfa8fe0a28abaa7b30c906111629083815260200190565b5f80807f7fffffffffffffffffffffffffffffff5d576e7357a4501ddfe92f46681b20a084111561392757505f915060039050826139ac565b604080515f808252602082018084528a905260ff891692820192909252606081018790526080810186905260019060a0016020604051602081039080840390855afa158015613978573d5f5f3e3d5ffd5b5050604051601f1901519150506001600160a01b0381166139a357505f9250600191508290506139ac565b92505f91508190505b9450945094915050565b5f6139c46002848418614c80565b611a1c90848416614c2b565b5f8084816139df866001614c2b565b85118015613a07575061060f60f31b6139fb8388016020015190565b6001600160f01b031916145b90505f613a178215156002614c55565b90505f80613a25838a614c2b565b90505b87811015613a80575f613a46613a418784016020015190565b613ce8565b9050600f8160ff161115613a65575f5f97509750505050505050612aa0565b613a70601084614c55565b60ff909116019150600101613a28565b506001999098509650505050505050565b5f613aa58686868680519060200120611b60565b905084518651141580613aba57508351865114155b80613ac457508551155b15613af957855184518651604051630447b05d60e41b8152600481019390935260248301919091526044820152606401610fe1565b5f81815260046020526040902054600160a01b900465ffffffffffff1615613b425780613b25826111e4565b6040516331b75e4d60e01b8152610fe19291905f90600401614b8a565b5f613b4b6111d2565b613b53611986565b65ffffffffffff16613b659190614c2b565b90505f613b7f60085463ffffffff600160301b9091041690565b5f84815260046020526040902080546001600160a01b0319166001600160a01b038716178155909150613bb183612485565b815465ffffffffffff91909116600160a01b0265ffffffffffff60a01b19909116178155613bde82613d60565b815463ffffffff91909116600160d01b0263ffffffff60d01b1990911617815588517f7d84a6263ae0d98d3329bd7b46bb4e8d6f98cd35a7adb45c274c8b7fd5ebd5e090859087908c908c906001600160401b03811115613c4157613c41613f98565b604051908082528060200260200182016040528015613c7457816020015b6060815260200190600190039081613c5f5790505b508c89613c818a82614c2b565b8e604051613c9799989796959493929190614e87565b60405180910390a150505095945050505050565b60605f613cb783613d90565b6040805160208082528183019092529192505f91906020820181803683375050509182525060208101929092525090565b5f60f882901c602f81118015613d015750603a8160ff16105b15613d0f57602f1901610c54565b60608160ff16118015613d25575060678160ff16105b15613d335760561901610c54565b60408160ff16118015613d49575060478160ff16105b15613d575760361901610c54565b5060ff92915050565b5f63ffffffff8211156124b7576040516306dfcc6560e41b81526020600482015260248101839052604401610fe1565b5f60ff8216601f811115610c5457604051632cd44ac360e21b815260040160405180910390fd5b828054828255905f5260205f20908101928215613e0a579160200282015b82811115613e0a57825182546001600160a01b0319166001600160a01b03909116178255602090920191600190910190613dd5565b506124b7929150613e9f565b828054828255905f5260205f20908101928215613e0a579160200282015b82811115613e0a578251825591602001919060010190613e34565b828054828255905f5260205f20908101928215613e93579160200282015b82811115613e935782518290613e839082614fa6565b5091602001919060010190613e6d565b506124b7929150613eb3565b5b808211156124b7575f8155600101613ea0565b808211156124b7575f613ec68282613ecf565b50600101613eb3565b508054613edb90614a3d565b5f825580601f10613eea575050565b601f0160209004905f5260205f2090810190610c6b9190613e9f565b5f60208284031215613f16575f5ffd5b81356001600160e01b031981168114611a1c575f5ffd5b5f60208284031215613f3d575f5ffd5b5035919050565b5f81518084528060208401602086015e5f602082860101526020601f19601f83011685010191505092915050565b602081525f611a1c6020830184613f44565b6001600160a01b0381168114610c6b575f5ffd5b634e487b7160e01b5f52604160045260245ffd5b604051601f8201601f191681016001600160401b0381118282101715613fd457613fd4613f98565b604052919050565b5f6001600160401b03821115613ff457613ff4613f98565b50601f01601f191660200190565b5f61401461400f84613fdc565b613fac565b9050828152838383011115614027575f5ffd5b828260208301375f602084830101529392505050565b5f82601f83011261404c575f5ffd5b611a1c83833560208501614002565b5f5f5f5f6080858703121561406e575f5ffd5b843561407981613f84565b9350602085013561408981613f84565b92506040850135915060608501356001600160401b038111156140aa575f5ffd5b6140b68782880161403d565b91505092959194509250565b5f6001600160401b038211156140da576140da613f98565b5060051b60200190565b5f82601f8301126140f3575f5ffd5b813561410161400f826140c2565b8082825260208201915060208360051b860101925085831115614122575f5ffd5b602085015b83811015610e0257803561413a81613f84565b835260209283019201614127565b5f82601f830112614157575f5ffd5b813561416561400f826140c2565b8082825260208201915060208360051b860101925085831115614186575f5ffd5b602085015b83811015610e0257803583526020928301920161418b565b5f82601f8301126141b2575f5ffd5b81356141c061400f826140c2565b8082825260208201915060208360051b8601019250858311156141e1575f5ffd5b602085015b83811015610e025780356001600160401b03811115614203575f5ffd5b614212886020838a010161403d565b845250602092830192016141e6565b5f5f5f5f60808587031215614234575f5ffd5b84356001600160401b03811115614249575f5ffd5b614255878288016140e4565b94505060208501356001600160401b03811115614270575f5ffd5b61427c87828801614148565b93505060408501356001600160401b03811115614297575f5ffd5b6142a3878288016141a3565b949793965093946060013593505050565b5f8151808452602084019350602083015f5b828110156142ed5781516001600160a01b03168652602095860195909101906001016142c6565b5093949350505050565b5f8151808452602084019350602083015f5b828110156142ed578151865260209586019590910190600101614309565b5f82825180855260208501945060208160051b830101602085015f5b8381101561437557601f1985840301885261435f838351613f44565b6020988901989093509190910190600101614343565b50909695505050505050565b608081525f61439360808301876142b4565b82810360208401526143a581876142f7565b905082810360408401526143b98186614327565b91505082606083015295945050505050565b85815260a060208201525f6143e360a08301876142b4565b82810360408401526143f581876142f7565b905082810360608401526144098186614327565b9150508260808301529695505050505050565b634e487b7160e01b5f52602160045260245ffd5b6008811061444c57634e487b7160e01b5f52602160045260245ffd5b9052565b60208101610c548284614430565b5f5f6040838503121561446f575f5ffd5b82359150602083013561448181613f84565b809150509250929050565b602081525f611a1c60208301846142f7565b803560ff811681146114ac575f5ffd5b5f5f604083850312156144bf575f5ffd5b823591506144cf6020840161449e565b90509250929050565b5f5f83601f8401126144e8575f5ffd5b5081356001600160401b038111156144fe575f5ffd5b602083019150836020828501011115614515575f5ffd5b9250929050565b5f5f5f5f5f5f5f60c0888a031215614532575f5ffd5b873596506145426020890161449e565b9550604088013561455281613f84565b945060608801356001600160401b0381111561456c575f5ffd5b6145788a828b016144d8565b90955093505060808801356001600160401b03811115614596575f5ffd5b6145a28a828b0161403d565b92505060a08801356001600160401b038111156145bd575f5ffd5b6145c98a828b0161403d565b91505092959891949750929550565b5f5f5f5f5f608086880312156145ec575f5ffd5b853594506145fc6020870161449e565b935060408601356001600160401b03811115614616575f5ffd5b614622888289016144d8565b90945092505060608601356001600160401b03811115614640575f5ffd5b61464c8882890161403d565b9150509295509295909350565b65ffffffffffff81168114610c6b575f5ffd5b5f6020828403121561467c575f5ffd5b8135611a1c81614659565b5f5f5f5f6060858703121561469a575f5ffd5b843593506146aa6020860161449e565b925060408501356001600160401b038111156146c4575f5ffd5b6146d0878288016144d8565b95989497509550505050565b5f5f5f5f608085870312156146ef575f5ffd5b84356001600160401b03811115614704575f5ffd5b614710878288016140e4565b94505060208501356001600160401b0381111561472b575f5ffd5b61473787828801614148565b93505060408501356001600160401b03811115614752575f5ffd5b61475e878288016141a3565b92505060608501356001600160401b03811115614779575f5ffd5b8501601f81018713614789575f5ffd5b6140b687823560208401614002565b5f602082840312156147a8575f5ffd5b8135611a1c81613f84565b60ff60f81b8816815260e060208201525f6147d160e0830189613f44565b82810360408401526147e38189613f44565b606084018890526001600160a01b038716608085015260a0840186905283810360c0850152905061481481856142f7565b9a9950505050505050505050565b5f5f5f5f60808587031215614835575f5ffd5b843593506148456020860161449e565b9250604085013561485581613f84565b915060608501356001600160401b038111156140aa575f5ffd5b5f5f5f60608486031215614881575f5ffd5b833561488c81613f84565b92506020840135915060408401356001600160401b038111156148ad575f5ffd5b6148b98682870161403d565b9150509250925092565b5f5f5f5f5f60a086880312156148d7575f5ffd5b85356148e281613f84565b945060208601356148f281613f84565b935060408601356001600160401b0381111561490c575f5ffd5b61491888828901614148565b93505060608601356001600160401b03811115614933575f5ffd5b61493f88828901614148565b92505060808601356001600160401b03811115614640575f5ffd5b5f5f5f5f6060858703121561496d575f5ffd5b843561497881613f84565b93506020850135925060408501356001600160401b038111156146c4575f5ffd5b5f602082840312156149a9575f5ffd5b813563ffffffff81168114611a1c575f5ffd5b5f5f604083850312156149cd575f5ffd5b82356149d881613f84565b946020939093013593505050565b5f5f5f5f5f60a086880312156149fa575f5ffd5b8535614a0581613f84565b94506020860135614a1581613f84565b9350604086013592506060860135915060808601356001600160401b03811115614640575f5ffd5b600181811c90821680614a5157607f821691505b602082108103614a6f57634e487b7160e01b5f52602260045260245ffd5b50919050565b634e487b7160e01b5f52603260045260245ffd5b5f60208284031215614a99575f5ffd5b81516001600160401b03811115614aae575f5ffd5b8201601f81018413614abe575f5ffd5b8051614acc61400f82613fdc565b818152856020838501011115614ae0575f5ffd5b8160208401602083015e5f91810160200191909152949350505050565b818382375f9101908152919050565b634e487b7160e01b5f52601160045260245ffd5b81810381811115610c5457610c54614b0c565b65ffffffffffff8281168282160390811115610c5457610c54614b0c565b5f60208284031215614b61575f5ffd5b8151611a1c81614659565b65ffffffffffff8181168382160190811115610c5457610c54614b0c565b83815260608101614b9e6020830185614430565b826040830152949350505050565b5f60208284031215614bbc575f5ffd5b81518015158114611a1c575f5ffd5b84815260ff84166020820152826040820152608060608201525f6113e76080830184613f44565b85815260ff8516602082015283604082015260a060608201525f614c1960a0830185613f44565b8281036080840152612cf58185613f44565b80820180821115610c5457610c54614b0c565b5f60208284031215614c4e575f5ffd5b5051919050565b8082028115828204841417610c5457610c54614b0c565b634e487b7160e01b5f52601260045260245ffd5b5f82614c9a57634e487b7160e01b5f52601260045260245ffd5b500490565b634e487b7160e01b5f52603160045260245ffd5b60a081525f614cc560a08301886142b4565b8281036020840152614cd781886142f7565b90508281036040840152614ceb8187614327565b60608401959095525050608001529392505050565b60c081525f614d1260c08301896142b4565b8281036020840152614d2481896142f7565b90508281036040840152614d388188614327565b60608401969096525050608081019290925260a0909101529392505050565b828152604060208201525f611a196040830184613f44565b5f82518060208501845e5f920191825250919050565b60ff8181168382160190811115610c5457610c54614b0c565b6001815b6001841115612aa057808504811115614dbd57614dbd614b0c565b6001841615614dcb57908102905b60019390931c928002614da2565b5f82614de757506001610c54565b81614df357505f610c54565b8160018114614e095760028114614e1357614e2f565b6001915050610c54565b60ff841115614e2457614e24614b0c565b50506001821b610c54565b5060208310610133831016604e8410600b8410161715614e52575081810a610c54565b614e5e5f198484614d9e565b805f1904821115614e7157614e71614b0c565b029392505050565b5f611a1c60ff841683614dd9565b8981526001600160a01b0389166020820152610120604082018190525f90614eb19083018a6142b4565b8281036060840152614ec3818a6142f7565b9050828103608084015280885180835260208301915060208160051b84010160208b015f5b83811015614f1a57601f19868403018552614f04838351613f44565b6020958601959093509190910190600101614ee8565b505085810360a0870152614f2e818b614327565b93505050508560c08401528460e0840152828103610100840152614f528185613f44565b9c9b505050505050505050505050565b601f82111561138057805f5260205f20601f840160051c81016020851015614f875750805b601f840160051c820191505b81811015612171575f8155600101614f93565b81516001600160401b03811115614fbf57614fbf613f98565b614fd381614fcd8454614a3d565b84614f62565b6020601f821160018114615005575f8315614fee5750848201515b5f19600385901b1c1916600184901b178455612171565b5f84815260208120601f198516915b828110156150345787850151825560209485019460019092019101615014565b508482101561505157868401515f19600387901b60f8161c191681555b50505050600190811b0190555056fea26469706673582212209b3fbd70ade3aafe9a62abfb42b5efd9034b8db34c83ffba5232a901c20b4c4764736f6c634300081c0033","linkReferences":{}},"methodIdentifiers":{"BALLOT_TYPEHASH()":"deaaa7cc","CLOCK_MODE()":"4bf5d7e9","COUNTING_MODE()":"dd4e2ba5","EXTENDED_BALLOT_TYPEHASH()":"2fe3e261","activeProposals(uint256)":"e40824f8","activeProposalsLength()":"0555cac2","cancel(address[],uint256[],bytes[],bytes32)":"452115d6","cancel(uint256)":"40e58ee5","castVote(uint256,uint8)":"56781388","castVoteBySig(uint256,uint8,address,bytes)":"8ff262e3","castVoteWithReason(uint256,uint8,string)":"7b3c71d3","castVoteWithReasonAndParams(uint256,uint8,string,bytes)":"5f398a14","castVoteWithReasonAndParamsBySig(uint256,uint8,address,string,bytes,bytes)":"5b8d0e0d","clock()":"91ddadf4","eip712Domain()":"84b0196e","execute(address[],uint256[],bytes[],bytes32)":"2656227d","execute(uint256)":"fe0d94c1","getActiveProposals()":"5584c4f9","getVotes(address,uint256)":"eb9019d4","getVotesWithParams(address,uint256,bytes)":"9a802a6d","hasVoted(uint256,address)":"43859632","hashProposal(address[],uint256[],bytes[],bytes32)":"c59057e4","isProposalActive(uint256)":"164b3d2f","name()":"06fdde03","nonces(address)":"7ecebe00","onERC1155BatchReceived(address,address,uint256[],uint256[],bytes)":"bc197c81","onERC1155Received(address,address,uint256,uint256,bytes)":"f23a6e61","onERC721Received(address,address,uint256,bytes)":"150b7a02","proposalCount()":"da35c664","proposalDeadline(uint256)":"c01f9e37","proposalDetails(uint256)":"16e9eaec","proposalDetailsAt(uint256)":"2e82db94","proposalEta(uint256)":"ab58fb8e","proposalNeedsQueuing(uint256)":"a9a95294","proposalProposer(uint256)":"143489d0","proposalSnapshot(uint256)":"2d63f693","proposalThreshold()":"b58131b0","proposalVotes(uint256)":"544ffc9c","propose(address[],uint256[],bytes[],string)":"7d5e81e2","queue(address[],uint256[],bytes[],bytes32)":"160cbed7","queue(uint256)":"ddf0b009","quorum(uint256)":"f8ce560a","quorumDenominator()":"97c3d334","quorumNumerator()":"a7713a70","quorumNumerator(uint256)":"60c4247f","relay(address,uint256,bytes)":"c28bc2fa","setProposalThreshold(uint256)":"ece40cc1","setVotingDelay(uint48)":"79051887","setVotingPeriod(uint32)":"e540d01d","state(uint256)":"3e4f49e6","supportsInterface(bytes4)":"01ffc9a7","timelock()":"d33219b4","token()":"fc0c546a","updateQuorumNumerator(uint256)":"06f3f9e6","updateTimelock(address)":"a890c910","version()":"54fd4d50","votingDelay()":"3932abb1","votingPeriod()":"02a251a3"},"id":70}