{"abi":[{"type":"constructor","inputs":[],"stateMutability":"nonpayable"},{"type":"fallback","stateMutability":"payable"},{"type":"receive","stateMutability":"payable"},{"type":"function","name":"getValue","inputs":[],"outputs":[{"name":"","type":"uint256","internalType":"uint256"}],"stateMutability":"view"},{"type":"function","name":"owner","inputs":[],"outputs":[{"name":"","type":"address","internalType":"address"}],"stateMutability":"view"},{"type":"function","name":"transferOwnership","inputs":[{"name":"newOwner","type":"address","internalType":"address"}],"outputs":[],"stateMutability":"nonpayable"},{"type":"function","name":"updateValue","inputs":[{"name":"newValue","type":"uint256","internalType":"uint256"}],"outputs":[],"stateMutability":"nonpayable"},{"type":"event","name":"ValueUpdated","inputs":[{"name":"oldValue","type":"uint256","indexed":false,"internalType":"uint256"},{"name":"newValue","type":"uint256","indexed":false,"internalType":"uint256"},{"name":"updater","type":"address","indexed":false,"internalType":"address"}],"anonymous":false}],"bytecode":{"object":"0x6080604052348015600e575f5ffd5b50600180546001600160a01b031916331790555f8055610287806100315f395ff3fe60806040526004361061003e575f3560e01c80632096525514610040578063573c0bd3146100615780638da5cb5b14610080578063f2fde38b146100b7575b005b34801561004b575f5ffd5b505f546040519081526020015b60405180910390f35b34801561006c575f5ffd5b5061003e61007b36600461020d565b6100d6565b34801561008b575f5ffd5b5060015461009f906001600160a01b031681565b6040516001600160a01b039091168152602001610058565b3480156100c2575f5ffd5b5061003e6100d1366004610224565b610120565b5f8054908290556040805182815260208101849052338183015290517fd96280c39278f2e3eaaf96857762d3a2424fa2d9d4beb116105ca26cc2e329989181900360600190a15050565b6001546001600160a01b031633146101895760405162461bcd60e51b815260206004820152602160248201527f4f6e6c79206f776e65722063616e207472616e73666572206f776e65727368696044820152600760fc1b60648201526084015b60405180910390fd5b6001600160a01b0381166101eb5760405162461bcd60e51b8152602060048201526024808201527f4e6577206f776e65722063616e6e6f7420626520746865207a65726f206164646044820152637265737360e01b6064820152608401610180565b600180546001600160a01b0319166001600160a01b0392909216919091179055565b5f6020828403121561021d575f5ffd5b5035919050565b5f60208284031215610234575f5ffd5b81356001600160a01b038116811461024a575f5ffd5b939250505056fea26469706673582212206e74163c8a28f39a7c2c0a361fce6d397f4b11094c1c2f9157c8d804a6ed66d064736f6c634300081c0033","linkReferences":{}},"methodIdentifiers":{"getValue()":"20965255","owner()":"8da5cb5b","transferOwnership(address)":"f2fde38b","updateValue(uint256)":"573c0bd3"},"id":15}